S0100000626F74686F76656E2E73726563AF
S1130000DAC00000F9C00000F7C00000F5C000002D
S1130010F3C0000093C300006CC30000EDC00000F7
S1130020EBC00000E9C00000E7C00000E5C000002C
S1130030E3C00000E1C00000DFC00000DDC000003C
S1130040DBC00000D9C00000D7C00000D5C000004C
S1130050D3C00000D1C00000CFC00000CDC000005C
S1130060CBC00000C9C00000C7C00000C5C000006C
S1130070C3C00000C1C00000BFC00000BDC000007C
S1130080BBC00000B9C00000B7C00000B5C000008C
S1130090B3C00000B1C00000AFC00000ADC000009C
S11300A0ABC00000A9C00000A7C00000A5C00000AC
S11300B0A3C00000A1C000009FC000009DC00000BC
S11300C09BC0000099C0000097C0000095C00000CC
S11300D093C0000091C000008FC000008DC00000DC
S11300E08BC0000066087A089808AE08C408E208C5
S11300F0F8080E092C09360B390B390B390B2D0B6B
S1130100390B390B390B3C0B390B390B390B470ABB
S1130110390B390B390B300B390B390B390B330BCA
S1130120390B4A0A630A7C0A950AAE0AC70AE00A2E
S1130130F90A120B07634236B79BD8A71A396856D7
S113014018AEBAAB558C1D3CB7CC5763BD6DEDFDF5
S1130150753EF6177231BF000000803F08000000B2
S1130160BE922449123EABAAAA2ABECDCCCC4C3EA8
S113017000000080BEABAAAAAA3E00000000BF0097
S11301800000803F0000000000084178D3BB438793
S1130190D1133D190E3CC3BD4282AD2B3E68EC82A7
S11301A076BED98FE1A93E4C80EFFFBE01C4FF7F2C
S11301B03F000000000011241FBECFEFD1E2DEBFDC
S11301C0CDBF00E00CBF1DE1A0E0B2E0E6E0F0E24C
S11301D000E00BBF02C007900D92A431B107D9F71C
S11301E02EE1A4E1BDE101C01D92A03FB207E1F7F9
S11301F00E94370C0C94011003CF259A2D9A089570
S1130200269A2E9A0895279A2F9A08951092890073
S1130210682F70E080E090E00E94800D2BE734E1CD
S11302204EEE5FE30E94E70C20E030E04CE052E445
S11302300E94830C0E94540D6093880008951092CC
S11302408B00682F70E080E090E00E94800D2BE727
S113025034E14EEE5FE30E94E70C20E030E04CE036
S113026052E40E94830C0E94540D60938A00089506
S113027086E69EE00197F1F700004098419880E3FC
S113028088B9429AEFEFF7E43197F1F700C0000024
S11302904298E6E6FEE03197F1F700004098419875
S11302A088B9429AEFEFF7E43197F1F700C0000004
S11302B04298E6E6FEE03197F1F700004098419855
S11302C088B9429A8FEF97E40197F1F700C00000D4
S11302D04298E6E6FEE03197F1F700004098419835
S11302E080E288B9429A8FEF97E40197F1F700C052
S11302F000004298089598B19F7098B998B1282F3A
S1130300207F922B98B940984198429AEFEFF7E4F6
S11303103197F1F700C00000429898B19F7098B9E6
S113032098B18295807F892B88B940984198429AE8
S11303308FEF97E40197F1F700C000004298089509
S113034086E69EE00197F1F7000088E2D4DF81E0C1
S1130350D2DF86E0D0DF8EE0CEDF80E8CCCF089518
S113036098B19F7098B998B1282F207F922B98B993
S1130370409A4198429AEFEFF7E43197F1F700C0C1
S11303800000429898B19F7098B998B18295807F87
S1130390892B88B9409A4198429A8FEF97E4019744
S11303A0F1F700C000004298089580E8A4CF0895B2
S11303B0823069F018F4813031F00895833059F0B7
S11303C0843069F008958FE7860F95CF08958FEBF9
S11303D0860F91CF089583E9860F8DCF089583ED1D
S11303E0860F89CF08950F931F93CF93DF938A01CC
S11303F0E901882311F0611102C0D7DF01C0D8DF01
S1130400C530D105C1F49801329522952F70232768
S11304103F702327A7E4B3E00E94F20F96958795D7
S11304209695879596958795C0969093F11D8093A0
S1130430F01D96DF04C0C430D10509F0BEC0980198
S1130440369527953695279536952795A5ECB0E2F0
S11304500E94F20FAC01529542954F7045275F7090
S113046045275093591E4093581E9A01ADECBCEC9D
S11304700E94F20F96958795969587959695879500
S11304809C01220F331F880F991F880F991F880F13
S1130490991F820F931F9A01281B390BC901C0961B
S11304A09093DD1E8093DC1E5BDF980136952795C3
S11304B036952795ABE7B4E10E94F20FAC0156954F
S11304C047955093591E4093581E9A01ADECBCECCD
S11304D00E94F20F969587959695879596958795A0
S11304E09C01220F331F880F991F880F991F880FB3
S11304F0991F820F931F9A01281B390BC901C096BB
S11305009093D71E8093D61E2BDF04C0C230D10532
S113051009F058C09801ADECBCEC0E94F20FAC019C
S11305205695479556954795569547955093591E18
S11305304093581E9A010E94F20F969587959695BE
S11305408795969587959C01220F331F880F991FD5
S1130550880F991F880F991F820F931F9A01281BD8
S1130560390BC901C09690936F1E80936E1EF8DEFE
S11305709801ADECBCEC0E94F20F96958795969588
S11305808795969587959C01220F331F880F991F95
S1130590880F991F880F991F820F931F9801281B9A
S11305A0390BC901C0969093DB1E8093DA1ED8DE06
S11305B0269764F085E4D4DE09C0C330D10509F080
S11305C0A5CF73CFC130D10599F7D2CFDF91CF91A9
S11305D01F910F91089587B1876F87B988B180788B
S11305E088B9089510BA11BA10920701109208013F
S11305F00895EAE7F0E0108210927B0080E2809395
S11306007C0080E880BF86E880830895883018F0F5
S113061098E090937B008770806280937C00EAE787
S1130620F0E0808180648083808184FFFDCF8091AD
S11306307900EAE7F0E090819061908310927B006A
S1130640089581B18F6081B982B1807F82B9EAE077
S1130650F1E0808188618083EBE0F1E08081886152
S113066080830895E1E2F1E010828FEF8093250109
S113067091E0909324011092290180932801109213
S11306802B0180932A0110922D0180932C0189EA79
S1130690809320018BE08083089592B1907F8F70C6
S11306A0982B92B9089586E0F8CF089580E0F5CFAD
S11306B0089589E0F2CF089585E0EFCF08958AE0A8
S11306C0ECCF08956C98749A08956D98759A08956E
S11306D0F894EAE6F0E0808182608083EC9A789472
S11306E00895F894EAE6F0E0808188608083ED9ACA
S11306F008951F920F920FB60F9211248F939F9318
S1130700AF93BF938091201D9091211DA091221D34
S1130710B091231D0196A11DB11D8093201D9093BE
S1130720211DA093221DB093231DBF91AF919F91D2
S11307308F910F900FBE0F901F9018951F920F92DC
S11307400FB60F9211248F939F93AF93BF93809111
S11307501C1D90911D1DA0911E1DB0911F1D019681
S1130760A11DB11D80931C1D90931D1DA0931E1DE2
S1130770B0931F1DBF91AF919F918F910F900FBEAA
S11307800F901F901895CF92DF92EF92FF920F93E4
S11307901F93BC0180E090E00E94800D28E431EEBC
S11307A042E850E40E94E70C0E94540DAB0160E063
S11307B070E01092201D1092211D1092221D1092A3
S11307C0231D10921C1D10921D1D10921E1D1092AF
S11307D01F1D91E0E0E0C090201DD090211DE0900D
S11307E0221DF090231D00911C1D10911D1D2091B0
S11307F01E1D30911F1D892F041715072607370763
S113080008F48E2F811109C0892FC416D506E60677
S1130810F70608F48E2F8823F1F248DF1F910F9119
S1130820FF90EF90DF90CF9008953B9A43980895FE
S1130830D9DE07DF47DF49DFF8DFCDDEDEDCE0DCD1
S1130840E2CC089586B1886088B9089586B1877F1F
S113085088B90895BC0180E090E00E94800D25EEE7
S113086030ED4AEA50E40E94E70C0E94540DAB01BB
S1130870BC011092201D1092211D1092221D109275
S1130880231D8091201D9091211DA091221DB091C6
S1130890231D481759076A077B0798F707CF089560
S11308A0CF93DF93EC01FFDECE01D4DFDF91CF9154
S11308B008952F923F924F925F926F927F928F9200
S11308C09F92AF92BF92CF92DF92EF92FF920F93DB
S11308D01F93CF93DF932FEF8FE796E12150804052
S11308E09040E1F700C000008EE190E0D9DFDBDE4C
S11308F0A12CB12C212C312C66246A94712C82E019
S113090085DE882E83E082DE482E81E07FDE582E4D
S1130910912CE42CF12C6401CE0CDF1CC82FD0E008
S113092086010C0F1D1F23E030E0A8016DE081E07B
S11309305ADD0C38110580F0B9DEEFEFFFE831978E
S1130940F1F700C00000AFDE8CEF809328018FEF39
S113095080932A01ABDED2C0451408F469C0CC0FE1
S1130960DD1F8C0E9D1EFAEFF89DC001F99D900DC0
S11309701124B8010E94D60FEB01CA5FD109AC0E55
S1130980BD1EBE010D2E000C880B990B0E94820D1A
S113099026E636E646EE5FE30E940E0E6B017C010E
S11309A0B5010B2C000C880B990B0E94820D20E0E2
S11309B030E0A9010E940E0E9B01AC01C701B601F3
S11309C0A2D76B017C01CE0182199309BC01990F56
S11309D0880B990B0E94820D20E030E048E950E436
S11309E00E940E0E9B01AC01C701B6018CD70E9478
S11309F04F0D61302FEF720714F461E07FEF6F3F0A
S1130A00710511F00CF0B30177232CF48B01015024
S1130A101F4F730104C07301E61AF70A830143DE12
S1130A20E8E2F1E00083EAE2F1E0E0821E0167CF50
S1130A30EC0CFD1CFAEFFE9DC001FF9D900D1124EE
S1130A40B8010E94D60FEB01CA5FD109AC0EBD1EDE
S1130A50BE010D2E000C880B990B0E94820D26E618
S1130A6036E646EE5FE30E940E0E6B017C01B50193
S1130A700B2C000C880B990B0E94820D20E030E0B7
S1130A80A9010E940E0E9B01AC01C701B6013BD720
S1130A906B017C01CE0182199309BC01990F880B6B
S1130AA0990B0E94820D20E030E048E950E40E9456
S1130AB00E0E9B01AC01C701B60125D7F0D76130FA
S1130AC02FEF720714F461E07FEF6F3F710511F0AF
S1130AD00CF0B30177232CF48B0101501F4F7301E9
S1130AE004C07301E61AF70A8301DDDDE8E2F1E0F0
S1130AF0E082EAE2F1E000831E0101CFDF91CF91B1
S1130B001F910F91FF90EF90DF90CF90BF90AF9027
S1130B109F908F907F906F905F904F903F902F9019
S1130B200895CF93DF93EC018EE190E0B9DEC4DD4C
S1130B30CE0129DEDF91CF910895CF93DF93EC01AD
S1130B408EE190E0ADDEBBDDCE011DDEDF91CF9105
S1130B500895CF93DF93EC01ACDDCE017BDEDF9112
S1130B60CF910895E1E8F0E010828CEF8093850046
S1130B7081E08093840093E0909389008FEF8093C9
S1130B80880090938B0080938A0090938D008093CB
S1130B908C0090938700809386008BEA809380007A
S1130BA0109282008CE080830895F89441DE21DD68
S1130BB0D9DF58DD8DDD95DD78940895682F70E0D8
S1130BC080E090E09DD72FEE39EC43E95FE30E948B
S1130BD0710E9B01AC0160E070E080E89FE3F7D602
S1130BE02AE939EF4EE255E40E940E0E20E030E08F
S1130BF040E251E40E940E0E52D7CB0161327340A1
S1130C0010F080E293E00895FF920F931F93CF9327
S1130C10DF93FB011092EF1D1092EE1D6817790708
S1130C20B1F100911A1D10911B1DC8E8DDE140E0EF
S1130C3050E020E030E00F2EF0E3FF2EF02D2F5F88
S1130C403F4FE993F993DF01AA0FBB1FAE50B24E99
S1130C500D90BC91A02DFA9EB001FB9E700D112445
S1130C60E60FF71FEE5EFB4E6081460F511DB90182
S1130C70600F711FFD018A179B0709F75093EF1D41
S1130C804093EE1D70931B1D60931A1D02C020E05B
S1130C9030E0220F331FF901E857F24E918380832D
S1130CA0DF91CF911F910F91FF900895CF93DF9320
S1130CB06091121D7091131D16161706ECF4A4E230
S1130CC0BDE1E0E7FEE18FEF9FEFCFE0D7E220E068
S1130CD030E04D915D91452B41F4408151814C1799
S1130CE05D071CF4822F932FEA012F5F3F4F32964A
S1130CF02617370771F702C08FEF9FEFDF91CF916F
S1130D0008954F925F927F928F929F92AF92BF927B
S1130D10CF92DF92EF92FF920F931F93CF93DF93C3
S1130D20E090121DF090131D1E141F04BCF4C2EFBA
S1130D30DDE1A0E7BEE1E4E2FDE120E030E06FEFB9
S1130D407FEF4FE057E2699379934D935D9311924E
S1130D5011922F5F3F4F2E153F05ACF3FC01EE0FB0
S1130D60FF1FE059F14E11821082E701CC0FDD1F05
S1130D70BE016059714E2B0101E010E00F2EF0E32B
S1130D80BF2EF02D0F2EF0E78F2EFEE19F2EF02DBB
S1130D90A12C712C8BDF8F3F7FEF970709F43FC0A5
S1130DA0FC01EE0FFF1FEC5DF24E118300831E1455
S1130DB01F0484F7B89ED001B99EB00D1124AE5E15
S1130DC0BB4EF4012A2D372DAC01440F551FEA0107
S1130DD0C059D14E6E016D916033D1F0A9014C5DC3
S1130DE0524EEA0148815981452B91F4E60148812C
S1130DF05981460F511D608171814617570744F48C
S1130E00B9016E50724EEB019983888351834083FC
S1130E102E5F3F4F3296E415F505E9F6BBCFDF911F
S1130E20CF911F910F91FF90EF90DF90CF90BF90E3
S1130E30AF909F908F907F905F904F900895E8E8D7
S1130E40FDE18CEE9DE111921192E817F907D9F7B3
S1130E5010921B1D10921A1D8091D81E9091D91EBC
S1130E6050DF6091EC1D7091ED1D8091D81E909122
S1130E70D91ECACE0895AF92BF92CF92DF92EF925D
S1130E80FF920F931F93CF93DF937C016B015A0161
S1130E90C5E0D0E000E010E08BE0B8DB8FDE080FA7
S1130EA0191F2FEF8FE392E0215080409040E1F72B
S1130EB000C00000219781F79801ADECBCEC0E94C2
S1130EC0F20F969587959695879525E2E216F1049B
S1130ED0A1F028E2E216F10481F029E1E216F1041E
S1130EE061F02CE1E216F10441F02FE1E216F10485
S1130EF021F022E2E216F104D9F425E2C216D1046B
S1130F00D1F028E2C216D104C9F029E1C216D104F5
S1130F10C1F02CE1C216D104B9F02FE1C216D104FC
S1130F20B1F022E2C216D104A9F428E532E014C0DB
S1130F3024E630E011C028E532E00EC028E532E0B6
S1130F400BC028E532E008C028E532E005C028E5FA
S1130F5032E002C024E630E02817390790F194E625
S1130F609093571EE6ECF0E0908380E38E9DD001D1
S1130F708F9DB00D1124AC0DBD1DAE5EBB4E8C9388
S1130F808C9DD0018D9DB00D1124AE0DBF1DAE5EA4
S1130F90BB4E8C939083E08288EC8083C082F50101
S1130FA0EE0FFF1FE857F24E808191819093D91E76
S1130FB08093D81E44DF8EE190E0CBDD81E090E0A9
S1130FC002C080E090E0DF91CF911F910F91FF90DC
S1130FD0EF90DF90CF90BF90AF9008958F929F9243
S1130FE0AF92BF92CF92DF92EF92FF920F931F9333
S1130FF0CF93DF935C017B01FC018081918190930D
S1131000ED1D8093EC1D1BDF00911A1D10911B1D1B
S1131010F2E0EF16F104F4F0E501229688248394BB
S1131020912CC12CD12C899199919093ED1D809391
S1131030EC1D05DF80911A1D90911B1D80179107EF
S113104014F48C0164018FEF881A980A8E149F049B
S113105051F702C0C12CD12CCC0CDD1CF501EC0DD8
S1131060FD1D808191819093ED1D8093EC1DE7DE41
S1131070DF91CF911F910F91FF90EF90DF90CF9070
S1131080BF90AF909F908F900895CF93DF93CDB78B
S1131090DEB72C970FB6F894DEBF0FBECDBF9C0110
S11310A0215031092831310530F43093ED1D20935E
S11310B0EC1DC5DEE6C0FC017997E930F10508F0C6
S11310C0E0C08827EE58FF4F8F4F84C71A821982D9
S11310D087E290E09C838B8388E290E09E838D83FB
S11310E089E290E098878F8364E070E0CE010196F6
S11310F075DFC7C088E190E09A83898389E190E035
S11311009C838B8388E290E09E838D8389E290E0C8
S113111098878F838AE290E09A8789878BE290E0B0
S11311209C878B8766E070E0CE01019657DFA9C0EB
S113113084E090E09A83898388E190E09C838B83A8
S113114089E190E09E838D838AE190E098878F8384
S113115064E070E0CE01019641DF93C088E090E046
S11311609A8389838BE190E09C838B838CE190E06C
S11311709E838D838DE190E098878F8364E070E097
S1131180CE0101962BDF7DC08CE190E09A838983A8
S11311908DE190E09C838B838EE190E09E838D8330
S11311A08FE190E098878F838CE290E09A8789871B
S11311B08DE290E09C878B8766E070E0CE0101961B
S11311C00DDF5FC08CE090E09A8389838EE190E02C
S11311D09C838B838FE190E09E838D8380E290E0FB
S11311E098878F8364E070E0CE010196F7DE49C0F2
S11311F080E190E09A83898381E290E09C838B83F1
S113120082E290E09E838D8383E290E098878F83CF
S113121064E070E0CE010196E1DE33C082E290E04A
S11312209A83898383E290E09C838B8384E290E0B9
S11312309E838D8385E290E098878F838EE290E091
S11312409A8789878FE290E09C878B8766E070E0BD
S1131250CE010196C3DE15C084E190E09A838983B0
S113126084E290E09C838B8385E290E09E838D836F
S113127086E290E098878F8364E070E0CE01019667
S1131280ADDE2C960FB6F894DEBF0FBECDBFDF9156
S1131290CF910895CF93DF93EC0183E290E000DBDC
S11312A096EE9093280190932A01CE013ADC82E0D5
S11312B0ADD98E3148F400DA82E0A8D98E3120F419
S11312C082E0A4D98E31E0F329E989E993E0215041
S11312D080409040E1F7000085E090E02EDCE6D904
S11312E02FEF8FE796E1215080409040E1F700C056
S11312F00000DF91CF910895CF93DF93EC0183E257
S113130090E0CEDA96EE9093280190932A01CE01D4
S113131014DC82E07BD98E3148F4CED982E076D9D0
S11313208E3120F482E072D98E31E0F329E989E923
S113133093E0215080409040E1F7000085E090E088
S1131340F0DBB4D92FEF8FE796E121508040904035
S1131350E1F700C00000DF91CF9108959F92AF9212
S1131360BF92CF92DF92EF92FF920F931F93CF938E
S1131370DF93A12C912C0F2EF0E3BF2EF02D0091C2
S11313801A1D10911B1D101611060CF061C0780176
S1131390000F111F0857124ECA2DD92DA7014C1B3F
S11313A05D0BF80180819181729162918F01B89EE9
S11313B0F001B99EF00D1124E60FF71FEE0FFF1F89
S11313C0E050FE4F208131813093151D2093141D70
S11313D0A091161DB091171D6901CA1ADB0AF60106
S11313E0FF2324F4EE27FF27EC19FD096F01F0E138
S11313F0CF16D10494F02A173B0744F43CDD892B23
S113140009F0BDCFC6014E9745DF07C034DD892BF7
S113141009F0B5CFC6014E976FDF8091141D9091EE
S1131420151D9093171D8093161D43DA2FEF8FE738
S113143096E1215080409040E1F700C000002196E1
S113144080911A1D90911B1DC817D9070CF4A6CFC3
S11314508091881D9091891D9093D91E8093D81EE8
S1131460DF91CF911F910F91FF90EF90DF90CF907C
S1131470BF90AF909F90089503978F31910508F026
S1131480F8C0FC018827E558FF4F8F4FA3C588E7B4
S113149090E008956732710569F02CF461157105C7
S11314A009F4EDC010C06832710539F06932710574
S11314B039F009C08AE491E008958EE091E008953E
S11314C082ED90E008956931710569F02CF468317A
S11314D0710509F4D7C010C06832710539F069325A
S11314E0710539F009C082ED90E008958EE190E035
S11314F008958AE590E008956831710569F02CF447
S11315006430710509F4C1C010C06931710539F046
S11315106A31710539F009C08EE190E008958AE4DA
S113152091E008958EE091E008956B31710569F0C2
S11315302CF46830710509F4ABC010C06C3171052E
S113154039F06D31710539F009C08AE590E00895EC
S11315508EE190E008958AE491E008956D3171057B
S113156069F02CF46C31710509F495C010C06E312A
S1131570710539F06F31710539F009C082ED90E0E1
S113158008958EE091E008958AE491E008956E3123
S1131590710569F02CF46C30710509F47FC010C03A
S11315A06F31710539F06032710539F009C086E98F
S11315B090E008958AE590E008958EE190E0089522
S11315C06132710569F02CF46031710509F469C068
S11315D010C06232710539F06332710539F009C007
S11315E082ED90E0089586E990E008958AE590E020
S11315F008956332710569F02CF46232710509F4BF
S113160053C010C06432710539F06532710539F088
S113161009C08AE491E008958EE190E008958AE596
S113162090E008956432710561F024F46431710529
S1131630F1F10AC06532710551F06632710551F05D
S113164003C08EE091E0089580E090E0089582ED7B
S113165090E0089586E990E0089580E090E0089590
S113166084EB90E0089580EF90E008958CE291E09F
S113167008958AE590E008958CE390E008958AE562
S113168090E0089586E990E0089586E990E0089551
S113169082ED90E0089586E990E008958EE091E06F
S11316A008958AE491E008958EE091E008958EE132
S11316B090E008950F931F93CF93DF936091D81E0A
S11316C07091D91ED9DE2091161D3091171D821BF1
S11316D0930BEC0122F4CC27DD27C81BD90B8E0118
S11316E0C217D30764F48C2F0E941F018BE00E9461
S11316F0060364DA8739910508F041C00AC08C2FCB
S11317000E9406018BE00E94060358DA873991058E
S113171030F410928D0088E280938C002AC08C2FC4
S11317208B5F0E9406018BE00E94060347DA87392B
S1131730910530F010928D0088E280938C0019C0DE
S11317408BEF8C0F0E94060110928D0088E280932B
S11317508C000FC010928D0088E280938C0009C029
S11317608BEF800F0E941F0110928D0088E28093FE
S11317708C0010928D0088E580938C000CC085E06D
S11317808C0F0E941F018BE00E94060317DA873931
S1131790910530F3DFCFDF91CF911F910F91089521
S11317A09F92AF92BF92CF92DF92EF92FF920F93EC
S11317B01F93CF93DF93A090DE1EB090DF1E809125
S11317C0181D9091191D181619060CF044C00F2EFF
S11317D0FEEDEF2EFEE1FF2EF02D00E010E0C0E064
S11317E0D0E00F2EF3E69F2EF02D0F2EF6ECCF2E29
S11317F0D12CF02DF7018081918147DCAFDDF70119
S1131800819191917F018A159B05C9F4C50152DF2D
S11318102196FE01EE0FFF1FE252F14EA080B1802F
S11318209092571EF6019082A0820F5F1F4F809105
S1131830181D9091191D08171907E4F20CC0FE0138
S1131840EE0FFF1FEE5FFB4E219621913191281779
S11318503907D1F7DCCFDF91CF911F910F91FF9022
S1131860EF90DF90CF90BF90AF909F9008959DD957
S11318700E9438010E94A0016799FECF0E942204B1
S11318802FEF8FE796E1215080409040E1F700C0B0
S113189000000E9426042FEF8FEF9CE2215080402D
S11318A09040E1F700C0000085E00E9406012FEFA0
S11318B08FEF99E5215080409040E1F700C000008F
S11318C089EB0E941F012FEF8FEF99E52150804093
S11318D09040E1F700C0000010928D0088E58093ED
S11318E08C002FEF8FEF99E5215080409040E1F775
S11318F000C000001092D91E1092D81E51DF80E063
S113190090E008955058BB27AA270ED04DC13ED170
S113191030F043D120F031F49F3F11F41EF433C171
S11319200EF4E095E7FB29C1E92F4FD180F3BA17F4
S1131930620773078407950718F071F49EF567C171
S11319400EF4E0950B2EBA2FA02D0B01B9019001D6
S11319500C01CA01A0011124FF27591B99F0593F1A
S113196050F4503E68F11A16F040A22F232F342F62
S11319704427585FF3CF469537952795A795F040B0
S11319805395C9F77EF41F16BA0B620B730B840BC5
S1131990BAF09150A1F0FF0FBB1F661F771F881F7D
S11319A0C2F70EC0BA0F621F731F841F48F48795D5
S11319B077956795B795F7959E3F08F0B3CF9395C4
S11319C0880F08F09927EE0F9795879508950CD006
S11319D0EBC0E3D040F0DAD030F021F45F3F19F0EF
S11319E0CCC0511115C1CFC0F0D098F39923C9F3DD
S11319F05523B1F3951B550BBB27AA276217730711
S1131A00840738F09F5F5F4F220F331F441FAA1FC4
S1131A10A9F333D00E2E3AF0E0E830D09150504084
S1131A20E695001CCAF729D0FE2F27D0660F771F32
S1131A30881FBB1F261737074807AB07B0E809F014
S1131A40BB0B802DBF01FF2793585F4F2AF09E3FA9
S1131A50510568F092C0DCC05F3FECF3983EDCF3C4
S1131A60869577956795B795F7959F5FC9F7880F22
S1131A70911D9695879597F90895E1E0660F771F74
S1131A80881FBB1F621773078407BA0720F0621B05
S1131A90730B840BBA0BEE1F88F7E095089504D0FE
S1131AA06894B111B5C0089598D088F09F5790F00C
S1131AB0B92F9927B751A0F0D1F0660F771F881F6F
S1131AC0991F1AF0BA95C9F712C0B13081F09FD0AE
S1131AD0B1E008959CC0672F782F8827B85F39F04C
S1131AE0B93FCCF3869577956795B395D9F73EF4CE
S1131AF090958095709561957F4F8F4F9F4F089576
S1131B00E89409C097FB3EF4909580957095619593
S1131B107F4F8F4F9F4F9923A9F0F92F96E9BB2749
S1131B209395F695879577956795B795F111F8CFC5
S1131B30FAF4BB0F11F460FF1BC06F5F7F4F8F4F30
S1131B409F4F16C0882311F096E911C0772321F026
S1131B509EE8872F762F05C0662371F096E8862FBE
S1131B6070E060E02AF09A95660F771F881FDAF715
S1131B70880F9695879597F9089597F99F6780E858
S1131B8070E060E008959FEF80EC089500240A94CB
S1131B901616170618060906089500240A94121644
S1131BA01306140605060895092E0394000C11F477
S1131BB0882352F0BB0F40F4BF2B11F460FF04C024
S1131BC06F5F7F4F8F4F9F4F089557FD9058440F7D
S1131BD0551F59F05F3F71F04795880F97FB991F88
S1131BE061F09F3F79F08795089512161306140645
S1131BF0551FF2CF4695F1DF08C0161617061806D2
S1131C00991FF1CF86957105610508940895E894AC
S1131C10BB2766277727CB0197F908950BD0C4CF4C
S1131C20B5DF28F0BADF18F0952309F0A6CFABCFC3
S1131C301124EECFCADFA0F3959FD1F3950F50E0A6
S1131C40551F629FF001729FBB27F00DB11D639F6A
S1131C50AA27F00DB11DAA1F649F6627B00DA11D10
S1131C60661F829F2227B00DA11D621F739FB00DB6
S1131C70A11D621F839FA00D611D221F749F332726
S1131C80A00D611D231F849F600D211D822F762FBF
S1131C906A2F11249F5750408AF0E1F088234AF0BC
S1131CA0EE0FFF1FBB1F661F771F881F9150504008
S1131CB0A9F79E3F510570F060CFAACF5F3FECF3C8
S1131CC0983EDCF3869577956795B795F795E795F4
S1131CD09F5FC1F7FE2B880F911D9695879597F905
S1131CE00895FA01EE0FFF1F30962105310599F191
S1131CF06115710561F48038BFE39B0749F168946D
S1131D009038810561F08038BFEF9B0741F099233B
S1131D1042F5FF3FE1053105210511F1E8940894EE
S1131D20E795D901AA2329F4AB2FBE2FF85FD0F38E
S1131D3010C0FF5F70F4A695E0F7F73950F019F082
S1131D40FF3A38F49F779F930CD00F9007FC90587C
S1131D5008953EF018CF60E070E080E89FE30895B6
S1131D604FE79F775F934F933F932F939ED02F918D
S1131D703F914F915F9152DF05C019F40EF0FDCEF3
S1131D8046CF01CF2ADFC8F39638C0F707F80F9281
S1131D90E8942BE33AEA48EB5FE74EDF0F920F92A9
S1131DA00F924DB75EB70F92C0D0E4E3F1E016D0C6
S1131DB04F915F91EF91FF91E595EE1FFF1F49F061
S1131DC0FE57E0684427EE0F441FFA95E1F741956A
S1131DD0550B32D00F9007FE26C00895DF93CF93A2
S1131DE01F930F93FF92EF92DF927B018C01689413
S1131DF005C0DA2EEF011EDFFE01E894A5912591BE
S1131E00359145915591AEF3EF018EDDFE019701B9
S1131E10A801DA9479F7DF90EF90FF900F911F916A
S1131E20CF91DF9108959B01AC0160E070E080E800
S1131E309FE3CDCDA2CEACC0D0DEE8F39923D9F395
S1131E40940F511DBBF39150504094F059F08823E6
S1131E5032F0660F771F881F91505040C1F79E3FA4
S1131E60510544F7880F911D9695879597F9089524
S1131E705F3FACF0983E9CF0BB27869577956795BD
S1131E80B79508F4B1609395C1F7BB0F58F711F4F7
S1131E9060FFE8CF6F5F7F4F8F4F9F4FE3CFB8CE88
S1131EA00EF076C070CE689468CE97DEC8F399239E
S1131EB0D1F3C6F3DF93CF931F930F93FF92C92FF0
S1131EC0DD2788232AF02197660F771F881FDAF70A
S1131ED020E030E040E85FEB9FE3883920F0803E6B
S1131EE030F021968F770FDDECE5F1E003C00BDDD8
S1131EF0E9E8F1E073DF8B01BE01EC01FB2E6F57C3
S1131F0071097595771F880B990BFCDD28E132E781
S1131F1041E35FE38FDEAF2D9801AE01FF900F9197
S1131F201F91CF91DF9100DD3FCEFA01DC01AA0FB2
S1131F30BB1F9B01AC01BF5728F42227332744273A
S1131F4050781FC0B75188F4AB2F002446953795BD
S1131F502795011CA395D2F3002069F0220F331FAB
S1131F60441FB395DAF30DD0CDCC61307105A0E8F0
S1131F708A07B94630F49B01AC0166277727882786
S1131F809078309621F020833183428353830895DF
S1131F909F3F31F0915020F4879577956795B795D9
S1131FA0880F911D9695879597F90895AA1BBB1BD9
S1131FB051E107C0AA1FBB1FA617B70710F0A61B45
S1131FC0B70B881F991F5A95A9F780959095BC0166
S1131FD0CD010895EE0FFF1F881F8BBF0790F69168
S1131FE0E02D1994A29FB001B39FC001A39F700D6F
S1131FF0811D1124911DB29F700D811D1124911D0D
S10920000895F894FFCFDF
S113200600000F00000000000000000000000000B7
S113201600000000000000000000000000000000B6
S11320260000000000000000000000000000A50001
S11320360000000000000000000000000000000096
S11320460000000000000000000000000000000086
S11320560000000000000000000000000000000076
S1132066B40000001E000000000000000000000094
S11320760000000000000000000000000000000056
S11320860000000000000000000000000000000046
S11320960000000000000000000000000000000036
S11320A60000000000000000000000000000000026
S11320B60000000000000000000000000000000016
S11320C60000C30000002D00000000000000000016
S11320D600000000000000000000000000000000F6
S11320E600000000000000000000000000000000E6
S11320F65A0000000000000000000000000000007C
S113210600000000000000000000000000000000C5
S1132116000096000000000000000000000000001F
S113212600000000D20000003C0000000000000097
S11321360000000000000000000000000000000095
S11321460000000000000000000000000000000085
S11321560000000000000000000000000000000075
S11321660000000000000000000000000000000065
S11321760000000000000000000000000000000055
S1132186000000000000E10000004B000000000019
S11321960000000000000000000000000000000035
S11321A60000000000000000000000000000000025
S11321B60000000000000000000000000000000015
S11321C60000000000000000000000000000000005
S11321D600000000000000000000000000000000F5
S11321E60000000000000000F00000005A0000009B
S11321F600000000000000000000000000000000D5
S113220600000000000000000000000000000000C4
S113221600000000000000000000000000000000B4
S113222600000000000000000000000000000000A4
S11322360000000000000000000000000000000094
S113224600000000000000000000FF00000069001C
S11322560000000000000000000000000000000074
S11322660000000000000000000000000000000064
S113227600000000D20096000000000000000000EC
S11322860000000000000000000000000000000044
S11322960000000000000000000000000000000034
S11322A60000000000000000000000000E01000015
S11322B6780000000000000000000000000000009C
S11322C60000000000000000000000000000000004
S11322D600000000000000000000000000000000F4
S11322E600000000000000000000000000000000E4
S11322F600000000000000000000000000000000D4
S113230600000000000000000000000000001D01A5
S1132316000087000000000000000000000000002C
S113232600000000000000000000000000000000A3
S11323360000000000000000000000000000000093
S11323460000000000000000000000000000000083
S11323560000000000000000000000000000000073
S11323660000000000000000000000000000000063
S11323762C01000096000000000000000000000090
S11323860000000000000000000000000000000043
S11323960000000000000000000000000000000033
S11323A60000000000000000000000000000000023
S11323B60000000000000000000000000000000013
S11323C60000000000000000000000000000000003
S11323D600003B010000A500000000000000000012
S11323E600000000000000000000000000000000E3
S11323F6000000000000000000000E01D2000000F2
S113240600000000000000000000000000000000C2
S113241600000000000000000000000000000000B2
S113242600000000000000000000000000000000A2
S1132436000000004A010000B40000000000000093
S11324460000000000000000000000000000000082
S11324560000000000000000000000000000000072
S11324660000000000000000000000000000000062
S11324760000000000000000000000000000000052
S11324860000000000000000000000000000000042
S113249600000000000059010000C3000000000015
S11324A60000000000000000000000000000000022
S11324B60000000000000000000000000000000012
S11324C60000000000000000000000000000000002
S11324D600000000000000000000000000000000F2
S11324E600000000000000000000000000000000E2
S11324F6000000000000000068010000D200000097
S113250600000000000000000000000000000000C1
S113251600000000000000000000000000000000B1
S113252600000000000000000000000000000000A1
S11325360000000000000000000000000000000091
S11325460000000000000000000000000000000081
S1132556000000000000000000000F000000E10081
S11325660000000000000000000000000000000061
S11325760000000000000000000000000000000051
S11325864A010E01000000000000000000000000E7
S11325960000000000000000000000000000000031
S11325A60000000000000000000000000000000021
S11325B60000000000000000000000001E000000F3
S11325C6F000000000000000000000000000000011
S11325D600000000000000000000000000000000F1
S11325E600000000000000000000000000000000E1
S11325F600000000000000000000000000000000D1
S113260600000000000000000000000000000000C0
S113261600000000000000000000000000002D0083
S11326260000FF00000000000000000000000000A1
S11326360000000000000000000000000000000090
S11326460000000000000000000000000000000080
S11326560000000000000000000000000000000070
S11326660000000000000000000000000000000060
S11326760000000000000000000000000000000050
S11326863C0000000E0100000000000000000000F5
S11326960000000000000000000000000000000030
S11326A60000000000000000000000000000000020
S11326B60000000000000000000000000000000010
S11326C60000000000000000000000000000000000
S11326D600000000000000000000000000000000F0
S11326E600004B0000001D01000000000000000077
S11326F600000000000000000000000000000000D0
S11327060000000000001E004A0100000000000056
S113271600000000000000000000000000000000AF
S1132726000000000000000000000000000000009F
S1132736000000000000000000000000000000008F
S1132746000000005A0000002C01000000000000F8
S1132756000000000000000000000000000000006F
S1132766000000000000000000000000000000005F
S1132776000000000000000000000000000000004F
S1132786000000000000000000000000000000003F
S1132796000000000000000000000000000000002F
S11327A6000000000000690000003B01000000007A
S11327B6000000000000000000000000000000000F
S11327C600000000000000000000000000000000FF
S11327D600000000000000000000000000000000EF
S11327E600000000000000000000000000000000DF
S11327F600000000000000000000000000000000CF
S11328060000000000000000780000004A010000FB
S113281600000000000000000000000000000000AE
S1132826000000000000000000000000000000009E
S1132836000000000000000000000000000000008E
S1132846000000000000000000000000000000007E
S1132856000000000000000000000000000000006E
S1132866000000000000000000008700000059017D
S1132876000000000000000000000000000000004E
S11328860000000000000000000000005A001E00C6
S1132896000000000000000000000000000000002E
S11328A668010000000000000000000000000000B5
S11328B6000000000000000000000000000000000E
S11328C60000000000000000000000009600000068
S11328D600000000000000000000000000000000EE
S11328E600000000000000000000000000000000DE
S11328F600000000000000000000000000000000CE
S1132906000000000E0100000000000000000000AE
S113291600000000000000000000000000000000AD
S1132926000000000000000000000000000000009D
S113293600005A0000000000000000000000000033
S1132946000000000000000000000000000000007D
S11329560000D2000000000000000000000000009B
S1132966000000000000000000000000000000005D
S1132976000000000000000000000000000000004D
S1132986000000000000000000000000000000003D
S11329960E0100001E0000005A00000000000000A6
S11329A6000000000000000000000000000000001D
S11329B60000000000009600000000000000000077
S11329C60000000000000000000000001E000000DF
S11329D600000000000000000000000000000000ED
S11329E600000000000000000000000000000000DD
S11329F60000D200000000000000000000000000FB
S1132A0600000000000000000000000000000000BC
S1132A1600000000000000000000000000000000AC
S1132A260000000000000000000000004A01000051
S1132A36000000000000000000000000000000008C
S1132A46000000000000000000000000000000007C
S1132A5600000000000000009600000000000000D6
S1132A66000000000000000000000000000000005C
S1132A76000000000000000000000000000000004C
S1132A86000000000000000000000000000000003C
S1132A96000000000000000000000000000000002C
S1132AA6000000000000000000000000000000001C
S1132AB600000E0100004A0100005A000000000058
S1132AC600000000000000000000000000000000FC
S1132AD60000000000000000D2000000000000001A
S1132AE600000000000000000000000000000000DC
S1132AF6000000005A000000000000000000000072
S1132B0600000000000000000000000000000000BB
S1132B1600000000000000000E0100009600000006
S1132B26000000000000000000000000000000009B
S1132B36000000000000000000000000000000008B
S1132B46000000000000000000000000000000007B
S1132B56000000001E00000000000000000000004D
S1132B66000000000000000000000000000000005B
S1132B76000000000000000000004A010000D2002E
S1132B86000000000000000000000000000000003B
S1132B96000000000000000000000000000000002B
S1132BA6000000000000000000000000000000001B
S1132BB6000000000000000000000000000000000B
S1132BC600000000000000000000000000000000FB
S1132BD60000000000000000000000001E000000CD
S1132BE696000000D2000000000000000000000073
S1132BF6000000000000000000000E0100000000BC
S1132C0600000000000000000000000000000000BA
S1132C160000000000000000000000009600000014
S1132C26000000000000000000000000000000009A
S1132C3600000000000000000000000000004A013F
S1132C46000000000000000000000000000000007A
S1132C56000000000000000000000000000000006A
S1132C66000000000000000000000000000000005A
S1132C760000000000000000000000005A000000F0
S1132C86000000000000000000000000000000003A
S1132C96000000000000000000000000000000002A
S1132CA6000000000E01000000000000000000000B
S1132CB6000000000000000000000000000000000A
S1132CC600000000000000000000000000000000FA
S1132CD600000000000000000000000000000000EA
S1132CE600000000000000000000000000000000DA
S1132CF600000000000000000000000000001E00AC
S1132D0600005A000000D20000000000000000008D
S1132D160000000000000000000000004A0100005E
S1132D260000000000000000000000000000000099
S1132D360000000000000000000000000000000089
S1132D4600000000D20000000000000000000000A7
S1132D560000000000000000000000000000000069
S1132D66000000001E0000000E010000000000002C
S1132D760000000000000000000000000000000049
S1132D860000000000000000000000000000000039
S1132D960000000000000000000000000000000029
S1132DA60000000096000000000000000000000083
S1132DB60000000000000000000000000000000009
S1132DC60000000000005A0000004A010000000054
S1132DD600000000000000000000000000000000E9
S1132DE600000000000000000000000000000000D9
S1132DF600000000000000000000000000000000C9
S1132E0600000000000000000000000000000000B8
S1132E1600000000000000000000000000000000A8
S1132E260000000000000000960000000E010000F3
S1132E364A010000000000000000000000001E001F
S1132E460000000000000000000000000000000078
S1132E560000000000000000000000000000000068
S1132E660000000000000000000000000E01000049
S1132E760000000000000000000000000000000048
S1132E86000000000000000000005A0000000000DE
S1132E960000000000000000000000000000000028
S1132EA60000000000000000000000000000000018
S1132EB60000000000000000000000000000000008
S1132EC6000000000000000000000000D200000026
S1132ED600000000000000000000000000000000E8
S1132EE600000000000000000000000000000000D8
S1132EF61E000000000000000000000000000000AA
S1132F0600000000000000000000000000000000B7
S1132F1600000000000000000000000000000000A7
S1132F260000000000000000000000000000000097
S1132F360000000000000000000000000000000087
S1132F460000000000000000000096000000D2000F
S1132F5600004A015A0000000000000000000000C2
S1132F66000000004A01000000000000000000000C
S1132F760000000000000000000000000000000047
S1132F860000000000000000000000000000000037
S1132F961E00000000000000000000000000000009
S1132FA60000000000000000000000000000000017
S1132FB69600000000000000000000000000000071
S1132FC600000000000000000000000000000000F7
S1132FD600000000000000000000000000000000E7
S1132FE600000000000000000000000000000000D7
S1132FF600000000000000000000000000000000C7
S113300600000000000000000000000000000000B6
S11330160E01000000001E00000000000000000079
S11330260000000000000000000000000000000096
S11330360000000000000000000000000000000086
S11330460000000000000000000000000000000076
S113305600004A010000000000000000000000001B
S11330660000000000000000000000000000000056
S113307600000000D2000000000000000000000074
S11330860000000000000000000000000000000036
S11330960000000000000000000000000000000026
S11330A60000000000000000000000000000000016
S11330B600000000000000001E00000000000000E8
S11330C600000000000000000000000000000000F6
S11330D60000000000000000000096000000000050
S11330E600000000000000000000000000000000D6
S11330F600000000000000000000000000000000C6
S113310600000000000000000000000000000000B5
S113311600000000000000000000000000005A004B
S11331260000000000000000000000000000000095
S113313600000000000000004A010000000000003A
S11331460000000000000000000000000000000075
S11331560000000000000000000000000000000065
S11331660000000000000000000000000000000055
S11331760000000000000000000000000000000045
S1133186000000009600000000000000000000009F
S113319600000000000000000000000000000E0116
S11331A60000000000000000000000000000000015
S11331B60000000000000000000000000000000005
S11331C600000000000000000000000000000000F5
S11331D600000000000000000000000000000000E5
S11331E600000000000000000000D2000000000003
S11331F60000000000000000000000005A0000006B
S113320607001D001A00120018000D001E00100011
S113321614003031303030303030303030303030EF
S11332263030303030303030303130303030303093
S11332363030303030303030303030303030303084
S11332463030313031303030303030303030303072
S11332563030303030303030303030303030303064
S11332663030303030303030303030303030303054
S11332763030303130313030303030303030303042
S11332863030303030303030303031303030303033
S11332963030303030303030303030313030303023
S11332A63030303031303130303030303030303012
S11332B63030303030303030303030303030303004
S11332C630303030303030303030303030303030F4
S11332D630303030303130313030303030303030E2
S11332E630303030303030303030303030303030D4
S11332F630303030303030303030303030303030C4
S113330630303030303031303130303030303030B1
S113331630303030303030303030303030303030A3
S11333263030303030303030303030303030303093
S11333363030303030303031303130303030303081
S11333463030303030303030303030303131303071
S11333563030303030303030303030303030303063
S11333663030303030303030313031303030303051
S11333763030303030303030303030303030303043
S11333863030303030303030303030303030303033
S11333963030303030303030303130313030303021
S11333A63030303030303030303030303030303013
S11333B63030303030303030303030303030303003
S11333C630303030303030303030313031303030F1
S11333D630303030303030303030303030303030E3
S11333E630303030303030303030303030303030D3
S11333F630303030303030303030303130313030C1
S113340630303030303030303030303030303031B1
S113341631303030303030303030303030303030A1
S11334263030303030303030303030303130313090
S11334363030303030303030303030303030303082
S11334463030303030303030303030303030303072
S11334563030303030303030303030303031303160
S11334663030303030303030303030303030303052
S11334763030303030303030303030303030303042
S11334863030303030303030303030303030313031
S11334963130303030303030303030303030303021
S11334A63030303030303030303030303030303012
S11334B63030303030303030303030303030303101
S11334C630313030303030303030303030303030F1
S11334D630303131303030303030303030303030E0
S11334E630303030303030303030303030303030D2
S11334F631303130303030303030303030303030C0
S113350630303030303030303030303030303030B1
S113351630303030303030303030303030303030A1
S1133526303130313030303030303030303030308F
S11335363030303030303030303030303030303081
S11335463030303030303030303030303030303071
S1133556303031303130303030303030303030305F
S11335663030303030303030303030303030303051
S11335763030303030303030303030303030303041
S1133586303030313031303030303030303030302F
S1133596303030303031313030303030303030301F
S11335A63030303030303030303030303030303011
S11335B630303030313031303030303030303030FF
S11335C630303030303030303030303030303030F1
S11335D630303030303030303030303030303030E1
S11335E630303030303130313030303030303030CF
S11335F630303030303030303030303030303030C1
S113360630303030303030303030303030303030B0
S1133616303030303030313031303030303030309E
S11336263030303030303030303030303030303090
S11336363030303030303030303030303030303080
S1133646303030303030303130313030303030306E
S1133656303030303030303031313030303030305E
S1133666303031303030303030303030303030304F
S1133676303030303030303031303030303030303F
S11336863030303030303030303030303030303030
S1133696303030303130303030303030303030301F
S11336A6303030303030303030303031303030300F
S11336B630303030303030303030303130303030FF
S11336C630303030303030303030303030303030F0
S11336D630303030303030303030313031303130DD
S11336E630303030303030303030303030313030CF
S11336F630303030303030303130303030303030BF
S113370630303030303030303030303130303030AE
S1133716303030303030303030303030303030309F
S1133726303030303030303031303030303030308E
S1133736303030303030303030303030303031307E
S1133746303030303030303030303030303030306F
S1133756303030303030303030303030303030305F
S1133766303030303030303030303031303130314C
S1133776303030303030303030303030303031303E
S1133786303030303030303030303030313030302E
S1133796303030303030303030303030303031301E
S11337A6313030303030303030303030303030300E
S11337B630303030303030303030303031303030FE
S11337C630303030303030303030303030303031EE
S11337D630313030303030303030303030303030DE
S11337E630303030303030303030303030303030CF
S11337F630303030303030303030303030303030BF
S113380631303130313030303030303030303031AA
S1133816303030303030303030303030303030309E
S1133826313030303030303030303030303030308D
S1133836303130303030303030303030303030307D
S1133846303030303030303030303030303030306E
S1133856313030303030303030303030303030305D
S1133866303030303130303030303030303030304D
S1133876303030303030303030303030303030303E
S1133886303030303030303030303030303030302E
S1133896303130313031303030303030303030301B
S11338A6313030303030303030303030303030300D
S11338B630303030313030303030303030303030FD
S11338C630303030313031303030303030303030EC
S11338D630303030303030303030303030303030DE
S11338E630303030313030303030303030303030CD
S11338F630303030303130313030303030303030BC
S113390630303030303030303030303030303030AD
S1133916303030303030303030303030303030309D
S1133926303030303030313031303130303030308A
S1133936303130303030303030303030303030307C
S1133946303030303030303031303030303030306C
S1133956303030303030303130303030303030305C
S1133966303030303030303030303030303030304D
S1133976303030303030303031303030303030303C
S1133986303030303030303030303130303030302C
S1133996303030303030303030303030303030301D
S11339A6303030303030303030303030303030300D
S11339B630303030303030313031303131303030F9
S11339C630303030313030303030303030303030EC
S11339D630303030303030303030313030303030DC
S11339E630303030303030303030313030303030CC
S11339F630303030303030303030303030303030BD
S1133A0630303030303030303030303030303030AC
S1133A16303030303030303030303130303130309A
S1133A26303030303030303030303030303030308C
S1133A36303030303030303030303031303030307B
S1133A46303030303030303030303030313030306B
S1133A56303030303030303030303030303030305C
S1133A66303030303030303030303030303031304B
S1133A76303030303030303030303030303030313B
S1133A86303030303030303030303030303030302C
S1133A96303030303030303030303030303030301C
S1133AA6303130303030303030303030303031300A
S1133AB630303030303030303030303030303030FC
S1133AC630303030303030303030303030303030EC
S1133AD630303030313030303030303030303030DB
S1133AE630313030303030303030303030303030CB
S1133AF630303030303030303030303030303030BC
S1133B0630303030303030313030303030303030AA
S1073B163130300016
S9030000FC
