S00E00006D61737465722E737265638A
S113000071C000008EC000008CC000008AC00000D7
S113001088C00000B0C1000089C1000082C0000097
S113002080C000007EC000007CC000007AC00000D8
S113003078C0000076C0000074C0000072C00000E8
S113004070C000006EC000006CC000006AC00000F8
S113005068C0000066C0000064C0000062C0000008
S113006060C00000E7C100005CC000005AC000008E
S113007058C0000056C0000054C0000052C0000028
S113008050C000004EC000004CC000004AC0000038
S113009048C0000046C0000044C0000042C0000048
S11300A040C000003EC000003CC000003AC0000058
S11300B038C0000036C0000034C0000032C0000068
S11300C030C000002EC000002CC000002AC0000078
S11300D028C0000026C0000024C0000022C0000088
S11300E020C0000011241FBECFEFD1E2DEBFCDBF80
S11300F000E00CBF1BE0A0E0B2E0E8E3F8E000E0C1
S11301000BBF02C007900D92A030B107D9F72CE0C5
S1130110A0E0BBE001C01D92A43DB207E1F7E9D124
S113012089C36ECF259A2D9A0895269A2E9A0895FA
S1130130279A2F9A089510928B00682F70E080E020
S113014090E0EAD22BE734E14EEE5FE351D220E0B7
S113015030E04CE052E4E8D1B3D260938A000895D1
S113016086E69EE00197F1F700004098419880E30D
S113017088B9429AEFEFF7E43197F1F700C0000035
S11301804298E6E6FEE03197F1F700004098419886
S113019088B9429AEFEFF7E43197F1F700C0000015
S11301A04298E6E6FEE03197F1F700004098419866
S11301B088B9429A8FEF97E40197F1F700C00000E5
S11301C04298E6E6FEE03197F1F700004098419846
S11301D080E288B9429A8FEF97E40197F1F700C063
S11301E000004298089598B19F7098B998B1282F4B
S11301F0207F922B98B940984198429AEFEFF7E408
S11302003197F1F700C00000429898B19F7098B9F7
S113021098B18295807F892B88B940984198429AF9
S11302208FEF97E40197F1F700C00000429808951A
S113023086E69EE00197F1F7000088E2D4DF81E0D2
S1130240D2DF86E0D0DF8EE0CEDF80E8CCCF089529
S1130250E1ECF0E010821092C00086E08093C200CE
S11302608FE58093C4001092C50088E980830895C7
S113027087B1876F87B988B1807888B9089510BA33
S113028011BA10920701109208010895EAE7F0E00C
S1130290108210927B0080E280937C0080E880BF13
S11302A086E88083089581B18F6081B982B1807FAF
S11302B082B9EAE0F1E0808188618083EBE0F1E0DB
S11302C08081886180830895E1E2F1E010828FEFFC
S11302D08093250191E09093240110922901809349
S11302E0280110922B0180932A0110922D018093F2
S11302F02C0189EA809320018BE0808308956C9817
S1130300749A08956D98759A0895F894EAE6F0E061
S1130310808182608083EC9A78940895F894EAE668
S1130320F0E0808188608083ED9A08951F920F9297
S11303300FB60F9211248F939F93AF93BF93809125
S1130340040B9091050BA091060BB091070B01963D
S1130350A11DB11D8093040B9093050BA093060B74
S1130360B093070BBF91AF919F918F910F900FBEE8
S11303700F901F9018951F920F920FB60F92112491
S11303808F939F93AF93BF938091000B9091010B38
S1130390A091020BB091030B0196A11DB11D809396
S11303A0000B9093010BA093020BB093030BBF912E
S11303B0AF919F918F910F900FBE0F901F90189542
S11303C03B9A439808955BDF6EDF99DF9BDFF8DF8C
S11303D04FDFA8DEAADEACCE0895E1E8F0E010829B
S11303E08CEF8093850081E08093840093E0909368
S11303F089008FEF8093880090938B0080938A000C
S113040090938D0080938C00909387008093860056
S11304108BEA80938000109282008CE080830895A0
S1130420F894D1DF33DFD9DF4FDF6FDF77DF10DF01
S1130430789408951F920F920FB60F9211240BB661
S11304400F922F933F938F939F93EF93FF938091FA
S1130450C60090E09C012B5F31092430310528F45B
S113046090936D0B80936C0B37C020916C0B309183
S11304706D0B2D3F310529F49093D50B8093D40B4C
S11304802BC02E3F310541F58436910539F482EDB8
S113049090E090933F0C80933E0C1EC0883C9105E5
S11304A039F48CED90E090933F0C80933E0C14C093
S11304B020913E0C30913F0C2C3D310569F420E332
S11304C0FC01E050FE4F2083289FF001299FF00D8E
S11304D01124E050FE4F2083FF91EF919F918F9163
S11304E03F912F910F900BBE0F900FBE0F901F9056
S11304F0189596DF35DE9CDE2FEF8FEF99E52150BE
S113050080409040E1F700C0000084EB14DE2FEF40
S11305108FEF9CE2215080409040E1F700C0000042
S113052080E090E008955058BB27AA270ED048C118
S113053039D130F03ED120F031F49F3F11F41EF454
S11305402EC10EF4E095E7FB24C1E92F4AD180F3D4
S1130550BA17620773078407950718F071F49EF5BC
S113056062C10EF4E0950B2EBA2FA02D0B01B90138
S113057090010C01CA01A0011124FF27591B99F015
S1130580593F50F4503E68F11A16F040A22F232F21
S1130590342F4427585FF3CF469537952795A79571
S11305A0F0405395C9F77EF41F16BA0B620B730B18
S11305B0840BBAF09150A1F0FF0FBB1F661F771F89
S11305C0881FC2F70EC0BA0F621F731F841F48F43E
S11305D0879577956795B795F7959E3F08F0B3CFC4
S11305E09395880F08F09927EE0F979587950895AE
S11305F00CD0E6C0DED040F0D5D030F021F45F3F1F
S113060019F0C7C0511110C1CAC0EBD098F3992397
S1130610C9F35523B1F3951B550BBB27AA276217C2
S11306207307840738F09F5F5F4F220F331F441F07
S1130630AA1FA9F333D00E2E3AF0E0E830D091503F
S11306405040E695001CCAF729D0FE2F27D0660F2C
S1130650771F881FBB1F261737074807AB07B0E86B
S113066009F0BB0B802DBF01FF2793585F4F2AF081
S11306709E3F510568F08DC0D7C05F3FECF3983EB4
S1130680DCF3869577956795B795F7959F5FC9F7DE
S1130690880F911D9695879597F90895E1E0660F67
S11306A0771F881FBB1F621773078407BA0720F0E0
S11306B0621B730B840BBA0BEE1F88F7E095089549
S11306C098D088F09F5790F0B92F9927B751A0F090
S11306D0D1F0660F771F881F991F1AF0BA95C9F7D2
S11306E012C0B13081F09FD0B1E008959CC0672F53
S11306F0782F8827B85F39F0B93FCCF38695779582
S11307006795B395D9F73EF490958095709561956A
S11307107F4F8F4F9F4F0895E89409C097FB3EF495
S113072090958095709561957F4F8F4F9F4F99233A
S1130730A9F0F92F96E9BB279395F69587957795B8
S11307406795B795F111F8CFFAF4BB0F11F460FF78
S11307501BC06F5F7F4F8F4F9F4F16C0882311F0D0
S113076096E911C0772321F09EE8872F762F05C0E4
S1130770662371F096E8862F70E060E02AF09A957F
S1130780660F771F881FDAF7880F9695879597F974
S1130790089597F99F6780E870E060E008959FEFFF
S11307A080EC089500240A94161617061806090604
S11307B0089500240A9412161306140605060895D3
S11307C0092E0394000C11F4882352F0BB0F40F45B
S11307D0BF2B11F460FF04C06F5F7F4F8F4F9F4F9B
S11307E0089557FD9058440F551F59F05F3F71F01D
S11307F04795880F97FB991F61F09F3F79F0879584
S11308000895121613061406551FF2CF4695F1DF0C
S113081008C0161617061806991FF1CF869571059C
S1130820610508940895E894BB2766277727CB01D0
S10B083097F90895F894FFCF35
S113083830313030303030303030303030303030AB
S1130848303030303030303130303030303030309B
S1130858303030303030303030303030303030308C
S1130868313031303030303030303030303030307A
S1130878303030303030303030303030303030306C
S1130888303030303030303030303030303030305C
S1130898303130313030303030303030303030304A
S11308A8303030303030303031303030303030303B
S11308B8303030303030303030313030303030302B
S11308C8303031303130303030303030303030301A
S11308D8303030303030303030303030303030300C
S11308E830303030303030303030303030303030FC
S11308F830303031303130303030303030303030EA
S113090830303030303030303030303030303030DB
S113091830303030303030303030303030303030CB
S113092830303030313031303030303030303030B9
S113093830303030303030303030303030303030AB
S1130948303030303030303030303030303030309B
S11309583030303030313031303030303030303089
S11309683030303030303030303031313030303079
S1130978303030303030303030303030303030306B
S11309883030303030303130313030303030303059
S1130998303030303030303030303030303030304B
S11309A8303030303030303030303030303030303B
S11309B83030303030303031303130303030303029
S11309C8303030303030303030303030303030301B
S11309D8303030303030303030303030303030300B
S11309E830303030303030303130313030303030F9
S11309F830303030303030303030303030303030EB
S1130A0830303030303030303030303030303030DA
S1130A1830303030303030303031303130303030C8
S1130A2830303030303030303030303030313130B8
S1130A3830303030303030303030303030303030AA
S1130A483030303030303030303031303130303098
S1130A58303030303030303030303030303030308A
S1130A68303030303030303030303030303030307A
S1130A783030303030303030303030313031303068
S1130A88303030303030303030303030303030305A
S1130A98303030303030303030303030303030304A
S1130AA83030303030303030303030303130313038
S1130AB8303030303030303030303030303030302A
S1130AC8303030303030303030303030303030301A
S1130AD83030303030303030303030303031303108
S1130AE830303030303030303030303030303030FA
S1130AF831313030303030303030303030303030E8
S1130B0830303030303030303030303030303130D8
S1130B1831303030303030303030303030303030C8
S1130B2830303030303030303030303030303030B9
S1130B3830303030303030303030303030303031A8
S1130B483031303030303030303030303030303098
S1130B583030303030303030303030303030303089
S1130B683030303030303030303030303030303079
S1130B783130313030303030303030303030303067
S1130B883030303030303030303030303030303059
S1130B983030303030303030303030303030303049
S1130BA83031303130303030303030303030303037
S1130BB83030303131303030303030303030303027
S1130BC83030303030303030303030303030303019
S1130BD83030313031303030303030303030303007
S1130BE830303030303030303030303030303030F9
S1130BF830303030303030303030303030303030E9
S1130C0830303031303130303030303030303030D6
S1130C1830303030303030303030303030303030C8
S1130C2830303030303030303030303030303030B8
S1130C3830303030313031303030303030303030A6
S1130C483030303030303030303030303030303098
S1130C583030303030303030303030303030303088
S1130C683030303030313031303030303030303076
S1130C783030303030303131303030303030303066
S1130C883130303030303030303030303030303057
S1130C983030303030303130303030303030303047
S1130CA83030303030303030303030303030303038
S1130CB83030313030303030303030303030303027
S1130CC83030303030303030303130303030303017
S1130CD83030303030303030303130303030303007
S1130CE830303030303030303030303030303030F8
S1130CF830303030303030303130313031303030E5
S1130D0830303030303030303030303130303030D6
S1130D1830303030303031303030303030303030C6
S1130D2830303030303030303031303030303030B6
S1130D3830303030303030303030303030303030A7
S1130D483030303030303130303030303030303096
S1130D583030303030303030303030303130303086
S1130D683030303030303030303030303030303077
S1130D783030303030303030303030303030303067
S1130D883030303030303030303130313031303054
S1130D983030303030303030303030303130303046
S1130DA83030303030303030303031303030303036
S1130DB83030303030303030303030303130313025
S1130DC83030303030303030303030303030303017
S1130DD83030303030303030303031303030303006
S1130DE830303030303030303030303030313031F5
S1130DF830303030303030303030303030303030E7
S1130E0830303030303030303030303030303030D6
S1130E1830303030303030303030303030303130C5
S1130E2831303130303030303030303030313030B3
S1130E3830303030303030303030303030303130A5
S1130E483030303030303030303030303030303195
S1130E583030303030303030303030303030303086
S1130E683030303030303030303030303030313075
S1130E783030303030303030303030303030303066
S1130E883030313030303030303030303030303055
S1130E983030303030303030303030303030303046
S1130EA83030303030303030303030303030303135
S1130EB83031303130303030303030303030313023
S1130EC83030303030303030303030303030303016
S1130ED83030313030303030303030303030303005
S1130EE830303130313030303030303030303030F4
S1130EF830303030303030303030303030303030E6
S1130F0830303130303030303030303030303030D4
S1130F1830303031303130303030303030303030C3
S1130F2830303030303030303030303030303030B5
S1130F3830303030303030303030303030303030A5
S1130F483030303031303130313030303030303191
S1130F583030303030303030303030303030303085
S1130F683030303030303130303030303030303074
S1130F783030303030313030303030303030303064
S1130F883030303030303030303030303030303055
S1130F983030303030303130303030303030303044
S1130FA83030303030303030313030303030303034
S1130FB83030303030303030303030303030303025
S1130FC83030303030303030303030303030303015
S1130FD83030303030313031303131303030303001
S1130FE830303130303030303030303030303030F4
S1130FF830303030303030303130303030303030E4
S113100830303030303030303130303030303030D3
S113101830303030303030303030303030303030C4
S113102830303030303030303030303030303030B4
S113103830303030303030303130303130303030A2
S11310483030303030303030303030303030303094
S11310583030303030303030303130303030303083
S11310683030303030303030303031303030303073
S11310783030303030303030303030303030303064
S11310883030303030303030303030303130303053
S11310983030303030303030303030303031303043
S11310A83030303030303030303030303030303034
S11310B83030303030303030303030303030303123
S11310C83030303030303030303030303130303013
S11310D83030303030303030303030303030303004
S11310E830303030303030303030303030303030F4
S11310F830303130303030303030303030303031E2
S113110830303030303030303030303030303030D3
S113111830303030303030303030303030303030C3
S113112830303030303130303030303030303130B1
S9030000FC
