S0110000736C6176655F6E65772E737265634F
S1130000BBC00000DAC00000D8C00000D6C00000A9
S1130010D4C0000064C400003DC40000CEC0000091
S1130020CCC00000CAC00000C8C00000C6C00000A8
S1130030C4C00000C2C00000C0C00000BEC00000B8
S1130040BCC00000BAC00000B8C00000B6C00000C8
S1130050B4C00000B2C00000B0C00000AEC00000D8
S1130060ACC00000E8C60000A8C00000A6C00000A4
S1130070A4C00000A2C00000A0C000009EC00000F8
S11300809CC000009AC0000098C0000096C0000008
S113009094C0000092C0000090C000008EC0000018
S11300A08CC000008AC0000088C0000086C0000028
S11300B084C0000082C0000080C000007EC0000038
S11300C07CC000007AC0000078C0000076C0000048
S11300D074C0000072C0000070C000006EC0000058
S11300E06CC000004A095E097C099209A809C60986
S11300F0DC09F209100A07634236B79BD8A71A39FC
S1130100685618AEBAAB558C1D3CB7CC5763BD6D61
S1130110EDFD753EF6177231BF000000803F080008
S11301200000BE922449123EABAAAA2ABECDCCCC72
S11301304C3E00000080BEABAAAAAA3E000000000C
S1130140BF000000803F0000000000084178D3BBDE
S11301504387D1133D190E3CC3BD4282AD2B3E688B
S1130160EC8276BED98FE1A93E4C80EFFFBE01C47C
S1130170FF7F3F000000000011241FBECFEFD1E23B
S1130180DEBFCDBF00E00CBF1DE1A0E0B2E0EAECB1
S1130190F3E200E00BBF02C007900D92A430B10758
S11301A0D9F72FE1A4E0BDE101C01D92A635B20745
S11301B0E1F70E94720D0C94E31122CF86E69EE0D3
S11301C00197F1F700004098419880E388B9429A7A
S11301D0EFEFF7E43197F1F700C000004298E6E64C
S11301E0FEE03197F1F700004098419888B9429AAF
S11301F0EFEFF7E43197F1F700C000004298E6E62C
S1130200FEE03197F1F700004098419888B9429A8E
S11302108FEF97E40197F1F700C000004298E6E6FB
S1130220FEE03197F1F700004098419880E288B9E8
S1130230429A8FEF97E40197F1F700C000004298CB
S1130240089598B19F7098B998B1282F207F922B68
S113025098B940984198429AEFEFF7E43197F1F753
S113026000C00000429898B19F7098B998B18295E7
S1130270807F892B88B940984198429A8FEF97E400
S11302800197F1F700C000004298089586E69EE0C9
S11302900197F1F7000088E2D4DF81E0D2DF86E045
S11302A0D0DF8EE0CEDF80E8CCCF089598B19F7088
S11302B098B998B1282F207F922B98B9409A4198E9
S11302C0429AEFEFF7E43197F1F700C0000042984B
S11302D098B19F7098B998B18295807F892B88B91D
S11302E0409A4198429A8FEF97E40197F1F700C042
S11302F000004298089580E8A4CF0895823069F000
S113030018F4813031F00895833059F0843069F065
S113031008958FE7860F95CF08958FEB860F91CFC1
S1130320089583E9860F8DCF089583ED860F89CFD5
S113033008950F931F93CF93DF938A01E9018823D4
S113034011F0611102C0D7DF01C0D8DFC530D1057B
S1130350C1F49801329522952F7023273F702327EB
S1130360A7E4B3E00E94D411969587959695879556
S113037096958795C0969093E91D8093E81D96DF26
S113038004C0C430D10509F0BEC098013695279544
S11303903695279536952795A5ECB0E20E94D411A1
S11303A0AC01529542954F7045275F704527509395
S11303B0511E4093501E9A01ADECBCEC0E94D41126
S11303C09695879596958795969587959C01220F86
S11303D0331F880F991F880F991F880F991F820F49
S11303E0931F9A01281B390BC901C09690932D1FA6
S11303F080932C1F5BDF98013695279536952795BA
S1130400ABE7B4E10E94D411AC01569547955093E3
S1130410511E4093501E9A01ADECBCEC0E94D411C5
S11304209695879596958795969587959C01220F25
S1130430331F880F991F880F991F880F991F820FE8
S1130440931F9A01281B390BC901C0969093271F4B
S11304508093261F2BDF04C0C230D10509F058C099
S11304609801ADECBCEC0E94D411AC0156954795B3
S113047056954795569547955093511E4093501E57
S11304809A010E94D411969587959695879596958D
S113049087959C01220F331F880F991F880F991F7E
S11304A0880F991F820F931F9A01281B390BC901CA
S11304B0C09690937F1E80937E1EF8DE9801ADEC6B
S11304C0BCEC0E94D4119695879596958795969540
S11304D087959C01220F331F880F991F880F991F3E
S11304E0880F991F820F931F9801281B390BC9018C
S11304F0C09690932B1F80932A1FD8DE269764F012
S113050085E4D4DE09C0C330D10509F0A5CF73CF8B
S1130510C130D10599F7D2CFDF91CF911F910F91BF
S11305200895FF920F931F93CF93DF93FB011092D3
S1130530E71D1092E61D68177907B1F10091161DA9
S11305401091171DCEE7DDE140E050E020E030E0FF
S11305500F2EF0E3FF2EF02D2F5F3F4FE993F99319
S1130560DF01AA0FBB1FA651B24E0D90BC91A02D66
S1130570FA9EB001FB9E700D1124E60FF71FEE5F8B
S1130580FB4E6081460F511DB901600F711FFD01C3
S11305908A179B0709F75093E71D4093E61D709354
S11305A0171D6093161D02C020E030E0220F331F98
S11305B0F901E258F24E91838083DF91CF911F912C
S11305C00F91FF900895CF93DF936091021D709176
S11305D0031D16161706ECF4A8E1BDE1E0E8FEE100
S11305E08FEF9FEFCFE0D7E220E030E04D915D91B7
S11305F0452B41F4408151814C175D071CF4822F37
S1130600932FEA012F5F3F4F32962617370771F772
S113061002C08FEF9FEFDF91CF9108954F925F92C9
S11306207F928F929F92AF92BF92CF92DF92EF927E
S1130630FF920F931F93CF93DF93E090021DF090EE
S1130640031D1E141F04BCF4CAEEDDE1A0E8BEE1E4
S1130650E8E1FDE120E030E06FEF7FEF4FE057E2AB
S1130660699379934D935D93119211922F5F3F4F4C
S11306702E153F05ACF3FC01EE0FFF1FE058F14EC1
S113068011821082E701CC0FDD1FBE016058714E4C
S11306902B0101E010E00F2EF0E3BF2EF02D0F2E02
S11306A0F0E88F2EFEE19F2EF02DA12C712C8BDF14
S11306B08F3F7FEF970709F43FC0FC01EE0FFF1F48
S11306C0E85EF24E118300831E141F0484F7B89E63
S11306D0D001B99EB00D1124AE5FBB4EF4012A2D9A
S11306E0372DAC01440F551FEA01C058D14E6E019D
S11306F06D916033D1F0A901485E524EEA01488100
S11307005981452B91F4E60148815981460F511DC9
S1130710608171814617570744F4B9016651724EDE
S1130720EB0199838883518340832E5F3F4F329638
S1130730E415F505E9F6BBCFDF91CF911F910F9139
S1130740FF90EF90DF90CF90BF90AF909F908F90ED
S11307507F905F904F900895E1ECF0E0108210924A
S1130760C00086E08093C2008FE58093C40010929D
S1130770C50088E98083089587B1876F87B988B1F8
S1130780807888B9089510BA11BA109207011092AE
S113079008010895EAE7F0E0108210927B0080E2FD
S11307A080937C0080E880BF86E880830895883049
S11307B018F098E090937B008770806280937C00AF
S11307C0EAE7F0E0808180648083808184FFFDCF4C
S11307D080917900EAE7F0E0908190619083109233
S11307E07B00089581B18F6081B982B1807F82B925
S11307F0EAE0F1E0808188618083EBE0F1E08081D0
S1130800886180830895E1E2F1E010828FEF8093A4
S1130810250191E0909324011092290180932801ED
S113082010922B0180932A0110922D0180932C01A8
S113083089EA809320018BE08083089592B1907FB0
S11308408F70982B92B9089586E0F8CF089580E0D0
S1130850F5CF089589E0F2CF089585E0EFCF0895AC
S11308608AE0ECCF08956C98749A08956D98759AFF
S11308700895F894EAE6F0E0808182608083EC9A3F
S113088078940895F894EAE6F0E0808188608083A3
S1130890ED9A08951F920F920FB60F9211248F9321
S11308A09F93AF93BF938091081D9091091DA091D0
S11308B00A1DB0910B1D0196A11DB11D8093081D49
S11308C09093091DA0930A1DB0930B1DBF91AF9186
S11308D09F918F910F900FBE0F901F9018951F92AC
S11308E00F920FB60F9211248F939F93AF93BF93E0
S11308F08091041D9091051DA091061DB091071DC6
S11309000196A11DB11D8093041D9093051DA09314
S1130910061DB093071DBF91AF919F918F910F90CA
S11309200FBE0F901F901895CF92DF92EF92FF9217
S11309300F931F93BC0180E090E00E94620F28E4B3
S113094031EE42E850E40E94C90E0E94360FAB011A
S113095060E070E01092081D1092091D10920A1DAB
S113096010920B1D1092041D1092051D1092061D6D
S11309701092071D91E0E0E0C090081DD090091D81
S1130980E0900A1DF0900B1D0091041D1091051DAF
S11309902091061D3091071D892F0417150726077E
S11309A0370708F48E2F811109C0892FC416D50684
S11309B0E606F70608F48E2F8823F1F248DF1F912C
S11309C00F91FF90EF90DF90CF9008953B9A43985A
S11309D0089586B1886088B9089586B1877F88B9FB
S11309E00895BC0180E090E00E94620F25EE30ED96
S11309F04AEA50E40E94C90E0E94360FAB01BC01C2
S1130A001092081D1092091D10920A1D10920B1DC0
S1130A108091081D9091091DA0910A1DB0910B1D94
S1130A20481759076A077B0798F711CF0895CF93A2
S1130A30DF93EC0109DFCE01D4DFDF91CF9108957C
S1130A402F923F924F925F926F927F928F929F92DA
S1130A50AF92BF92CF92DF92EF92FF920F931F93C8
S1130A60CF93DF932FEF8FE796E1215080409040A2
S1130A70E1F700C000008EE190E0D9DFE5DE00E0A0
S1130A8010E0C0E0D0E00F2EFAEF3F2EF02D0F2E35
S1130A90F8E2CF2EDD24D394F02D0F2EFAE28F2E20
S1130AA099249394F02DEE24EA94F12C2224239497
S1130AB082E07DDEA82E83E07ADEB82E81E077DE48
S1130AC02A2D30E0EB2DF0E0D901AE0FBF1F482FE7
S1130AD050E0BD01640F751F6C38710580F0B7DEFE
S1130AE0EFEFFFE83197F1F700C00000ADDE8CEFC7
S1130AF0809328018FEF80932A01A9DED1C0B81614
S1130B0008F468C0440F551F240F351F329EC001DE
S1130B10339E900D11240E94B8115B01FAEFAF1AB5
S1130B20B1080A0D1B1DB5010B2C000C880B990B89
S1130B300E94640F26E636E646EE5FE30E94F00F5D
S1130B402B013C01B801012E000C880B990B0E946B
S1130B50640F20E030E0A9010E94F00F9B01AC017A
S1130B60C301B2010E94650E2B013C01B5016C1B4F
S1130B707D0B072E000C880B990B0E94640F20E05C
S1130B8030E048E950E40E94F00F9B01AC01C3013E
S1130B90B2010E94650E0E94310FEB0161307F4F5C
S1130BA01CF4C22D9FEFD92FCF3FD10511F00CF0CB
S1130BB0E701DD2324F4C150DF4F370104C03701BE
S1130BC06C1A7D0AE70140DEF601C083F4016082FD
S1130BD0E5016ECFEA0FFB1F3E9EC0013F9E900DC4
S1130BE011240E94B8115B01FAEFAF1AB1080A0D83
S1130BF01B1DB5010B2C000C880B990B0E94640F74
S1130C0026E636E646EE5FE30E94F00F2B013C0138
S1130C10B801012E000C880B990B0E94640F20E090
S1130C2030E0A9010E94F00F9B01AC01C301B201A5
S1130C300E94650E2B013C01B5016C1B7D0B072E38
S1130C40000C880B990B0E94640F20E030E048E907
S1130C5050E40E94F00F9B01AC01C301B2010E9459
S1130C60650E0E94310FEB0161307F4F1CF4C22DE1
S1130C709FEFD92FCF3FD10511F00CF0E701DD2311
S1130C8024F4C150DF4F370104C037016C1A7D0AC8
S1130C90E701DADDF6016082F401C083E50108CFE3
S1130CA0DF91CF911F910F91FF90EF90DF90CF9044
S1130CB0BF90AF909F908F907F906F905F904F9078
S1130CC03F902F900895CF93DF93EC018EE190E055
S1130CD0AEDEC3DDCE0128DEDF91CF910895CF9340
S1130CE0DF93EC018EE190E0A2DEBADDCE011CDEE2
S1130CF0DF91CF910895CF93DF93EC01ABDDCE016B
S1130D0070DEDF91CF910895E1E8F0E010828CEF7E
S1130D108093850081E08093840093E09093890020
S1130D208FEF8093880090938B0080938A00909338
S1130D308D0080938C0090938700809386008BEACB
S1130D4080938000109282008CE080830895682F45
S1130D5070E080E090E00E94620F2FEE39EC43E9EE
S1130D605FE30E9453109B01AC0160E070E080E8F7
S1130D709FE30E94C90E2AE939EF4EE255E40E942E
S1130D80F00F20E030E040E251E40E94F00F0E94B6
S1130D90310FCB016132734010F080E293E008958B
S1130DA0259A2D9A0895269A2E9A0895279A2F9A6D
S1130DB00895E9DC17DD57DD59DD08DEDDDCF0DF01
S1130DC0F2DFF4CF0895F894F4DFE4DC9DDF1BDD5B
S1130DD050DD58DDC1DC7894089510928900682FA5
S1130DE070E080E090E00E94620F2BE734E14EEE69
S1130DF05FE3CFD720E030E04CE052E466D70E94B6
S1130E00360F60938800089510928B00682F70E06D
S1130E1080E090E00E94620F2BE734E14EEE5FE346
S1130E20B8D720E030E04CE052E44FD70E94360FB0
S1130E3060938A0008951F920F920FB60F921124A7
S1130E400BB60F922F933F934F938F939F93EF93F0
S1130E50FF938091C60090E09C012B5F3109243000
S1130E60310528F490937D1D80937C1D8FC02091C3
S1130E707C1D30917D1D2B3F310501F520910C1D0A
S1130E8030910D1D2115310559F49093151D809352
S1130E90141D21E030E030930D1D20930C1D1EC065
S1130EA0F901EE0FFF1FEE51F14E918380832F5F06
S1130EB03F4F30930D1D20930C1D10C02D3F310565
S1130EC069F49093E51D8093E41D2FEF3FE744E020
S1130ED0215030404040E1F700C0000020917C1DCB
S1130EE030917D1D2E3F310509F050C084369105A7
S1130EF081F482ED90E090934F1E80934E1E8FEF0D
S1130F009FE724E0815090402040E1F700C00000BA
S1130F103DC0883C910581F48CED90E090934F1E88
S1130F2080934E1E3FEF4FE784E0315040408040B5
S1130F30E1F700C000002AC020914E1E30914F1EE0
S1130F40223D310551F49FEF2FE734E091502040CA
S1130F503040E1F700C0000019C02C3D3105B1F468
S1130F604FEF2FE734E0415020403040E1F700C01C
S1130F70000020E3FC01EE5FFB4E2083289FF0017C
S1130F80299FF00D1124EE5FFB4E2083FF91EF911A
S1130F909F918F914F913F912F910F900BBE0F9086
S1130FA00FBE0F901F901895EEE7FDE182EE9DE1D4
S1130FB011921192E817F907D9F71092171D1092A0
S1130FC0161D8091281F9091291F28DB6091E21D36
S1130FD07091E31D8091281F9091291FA2CA089542
S1130FE0AF92BF92CF92DF92EF92FF920F931F9333
S1130FF0CF93DF937C016B015A01C5E0D0E000E0A0
S113100010E08BE0D4DBA3DE080F191F2FEF8FE372
S113101092E0215080409040E1F700C00000219709
S113102081F79801ADECBCEC0E94D411EC01D6958B
S1131030C795D695C79523E030E0AE016DE082E018
S113104078D925E2E216F104A1F088E2E816F10469
S113105081F099E1E916F10461F02CE1E216F10462
S113106041F08FE1E816F10421F092E2E916F1046F
S1131070D9F425E2C216D104D1F088E2C816D1040D
S1131080C9F099E1C916D104C1F02CE1C216D1040A
S1131090B9F08FE1C816D104B1F092E2C916D104B7
S11310A0A9F488E592E014C084E690E011C088E5D4
S11310B092E00EC088E592E00BC088E592E008C09B
S11310C088E592E005C088E592E002C084E690E0FD
S11310D08C179D0708F464C08EEF90E09093531E24
S11310E08093521EE6ECF0E08EEF80832FEF8FE7C3
S11310F094E0215080409040E1F700C0000080E37C
S11311008E9DD0018F9DB00D1124AC0DBD1DAE5F21
S1131110BB4E8C938C9DD0018D9DB00D1124AE0DD2
S1131120BF1DAE5FBB4E8C9384E680832FEF8FE7A9
S113113094E0215080409040E1F700C00000E0823C
S11311402FEF8FE794E0215080409040E1F700C0FA
S1131150000088EC80832FEF8FE794E021508040DB
S11311609040E1F700C00000C0822FEF8FE794E0C9
S1131170215080409040E1F700C00000F501EE0FDF
S1131180FF1FE258F24E808191819093291F809332
S1131190281F0ADF8EE190E0AEDD81E090E002C01E
S11311A080E090E0DF91CF911F910F91FF90EF903D
S11311B0DF90CF90BF90AF9008958F929F92AF929F
S11311C0BF92CF92DF92EF92FF920F931F93CF9330
S11311D0DF935C017B01FC01808191819093E31D8D
S11311E08093E21DE1DE0091161D1091171DF2E0BF
S11311F0EF16F104F4F0E501229688248394912CEF
S1131200C12CD12C899199919093E31D8093E21D77
S1131210CBDE8091161D9091171D8017910714F451
S11312208C0164018FEF881A980A8E149F0451F779
S113123002C0C12CD12CCC0CDD1CF501EC0DFD1D24
S1131240808191819093E31D8093E21DADDEDF9157
S1131250CF911F910F91FF90EF90DF90CF90BF90AF
S1131260AF909F908F900895CF93DF93CDB7DEB763
S11312702C970FB6F894DEBF0FBECDBFFC01799753
S1131280E930F10508F0E2C08827EE58FF4F8F4F90
S11312900C94CC111A82198287E290E09C838B8390
S11312A088E290E09E838D8389E290E098878F8323
S11312B064E070E0CE01019680DFCEC088E190E06A
S11312C09A83898389E190E09C838B8388E290E010
S11312D09E838D8389E290E098878F838AE290E0F1
S11312E09A8789878BE290E09C878B8766E070E021
S11312F0CE01019662DFB0C084E090E09A838983D6
S113130088E190E09C838B8389E190E09E838D83C8
S11313108AE190E098878F8364E070E0CE010196C3
S11313204CDF9AC088E090E09A8389838BE190E057
S11313309C838B838CE190E09E838D838DE190E090
S113134098878F8364E070E0CE01019636DF84C015
S11313508CE190E09A8389838DE190E09C838B8378
S11313608EE190E09E838D838FE190E098878F8358
S11313708CE290E09A8789878DE290E09C878B8746
S113138066E070E0CE01019618DF66C08CE090E064
S11313909A8389838EE190E09C838B838FE190E034
S11313A09E838D8380E290E098878F8364E070E071
S11313B0CE01019602DF50C080E190E09A838983D8
S11313C081E290E09C838B8382E290E09E838D8314
S11313D083E290E098878F8364E070E0CE01019609
S11313E0ECDE3AC082E290E09A83898383E290E063
S11313F09C838B8384E290E09E838D8385E290E0DE
S113140098878F838EE290E09A8789878FE290E0B5
S11314109C878B8766E070E0CE010196CEDE1CC00F
S113142084E190E09A83898384E290E09C838B83B7
S113143085E290E09E838D8386E290E098878F8397
S113144064E070E0CE010196B8DE06C00197909387
S1131450E31D8093E21DA8DD2C960FB6F894DEBF41
S11314600FBECDBFDF91CF9108952F923F924F923F
S11314705F926F927F928F929F92AF92BF92CF9220
S1131480DF92EF92FF920F931F93CF93DF9380919C
S1131490141D9091151D181619060CF072C0C4EE97
S11314A0DEE1A12CB12CC12CD12C212C312C612CAE
S11314B0712C412C512C0F2EFCE0EF2EF12CF02D31
S11314C0812C912C9092291F8092281F88819981C8
S11314D0CBDE0091161D1091171D040D151DF09201
S11314E0291FE092281F88819981BEDE8091161DF4
S11314F09091171D860D971D08171907DCF4F60146
S1131500EE0FFF1FE25DF04E888199819183808305
S11315108090E21D9090E31D8091121D9091131D07
S113152001969093131D8093121D2FEFC21AD20AB5
S113153028011BC0F501EE0FFF1FEC5AF14E288164
S1131540398131832083E090E21DF090E31D2091E6
S1131550101D3091111D2F5F3F4F3093111D2093AB
S1131560101D2FEFA21AB20A3C018FEF281A380A75
S113157022968091141D9091151D281639060CF49D
S1131580A1CFDF91CF911F910F91FF90EF90DF904A
S1131590CF90BF90AF909F908F907F906F905F900F
S11315A04F903F902F900895CF93DF93EC0183E207
S11315B090E03DDA96EE9093280190932A01CE01B3
S11315C082DB82E0F4D88E3148F447D982E0EFD848
S11315D08E3120F482E0EBD88E31E0F329E989E9F9
S11315E093E0215080409040E1F7000085E090E0D6
S11315F076DB2DD92FEF8FE796E121508040904084
S1131600E1F700C00000DF91CF910895CF93DF93FD
S1131610EC0183E290E00BDA96EE9093280190932C
S11316202A01CE015CDB82E0C2D88E3148F418D99D
S113163082E0BDD88E3120F482E0B9D88E31E0F357
S113164029E989E993E0215080409040E1F70000C6
S113165085E090E038DBFBD82FEF8FE796E121504F
S113166080409040E1F700C00000DF91CF910895E1
S11316702F923F924F925F926F927F928F929F929E
S1131680AF92BF92CF92DF92EF92FF920F931F938C
S1131690CF93DF93212C0F2EF0E35F2EF02D0F2E2E
S11316A0F6E86F2E77247394F02D0F2EF4EB3F2E73
S11316B0F02D0F2EF8E64F2EF02DC091161DD0916F
S11316C0171D1C161D060CF032C14E01CC0FDD1F78
S11316D0C258D24EE22CF12C5401AE18BF088881B6
S11316E0998122976E01589EF001599EF00D1124A4
S11316F088819981E80FF91FEE0FFF1FE050FE4F1C
S11317008081918190930F1D80930E1D2091001470
S113171030910114821B930BAC0122F4442755270A
S1131720481B590B8A0123E030E066E082E00E9406
S11317309901003111050CF4D3C0209100143091AB
S1131740011480910E1D90910F1D821793070CF0C8
S113175064C0053B11058CF1842D801B3EDB2FEF0B
S11317608FE793E4215080409040E1F700C00000EF
S1131770F60160817181A5018281938131DC892B1D
S113178061F085E02ADBFFEF2FE783E4F15020408E
S11317908040E1F700C0000090CF85E01EDB9FEFA2
S11317A0EFE7F3E49150E040F040E1F700C00000BF
S11317B0C301801B910B2ADF9DC0832D801B24DB7A
S11317C02FEF8FE793E4215080409040E1F700C071
S11317D00000F60160817181A5018281938100DCA2
S11317E0892B61F089EB10DBFFEF2FE783E4F150E5
S11317F020408040E1F700C000005FCF89EB04DBAC
S11318009FEFEFE7F3E49150E040F040E1F700C0D0
S11318100000C8014E97C8DE6DC0053B11058CF170
S113182084EB800FF1DA2FEF8FE793E421508040AF
S11318309040E1F700C00000F60160817181A501CC
S113184082819381CDDB892B61F089EBDDDAFFEFB7
S11318502FE783E4F15020408040E1F700C000000E
S11318602CCF89EBD1DA9FEFEFE7F3E49150E0401E
S1131870F040E1F700C00000C301801B910B94DE2F
S113188039C0802FAADA2FEF8FE793E421508040EC
S11318909040E1F700C00000F60160817181A5016C
S11318A0828193819DDB892B61F085E096DAFFEFDD
S11318B02FE783E4F15020408040E1F700C00000AE
S11318C0FCCE85E08ADA9FEFEFE7F3E49150E04045
S11318D0F040E1F700C00000C8014E9797DE0AC04F
S11318E0F60160817181A5018281938179DB892B65
S11318F009F0E3CE80910E1D90910F1D9093011479
S1131900809300149DD8FFEF2FE786E1F15020402B
S11319108040E1F700C000009FEFE91AF90A8091C6
S1131920161D9091171DE816F9060CF4D5CE80917A
S11319307E1D90917F1D9093291F8093281FDF9116
S1131940CF911F910F91FF90EF90DF90CF90BF90B8
S1131950AF909F908F907F906F905F904F903F904B
S11319602F9008957F928F929F92AF92BF92CF92C1
S1131970DF92EF92FF920F931F93CF93DF9329D8B7
S11319802FEF8FEF99E5215080409040E1F700C0A0
S1131990000023D81092E51D1092E41D8091101DC3
S11319A09091111D181619060CF08EC004E51EE165
S11319B0E12CF12C0F2EFDEF8F2E912CF02D0F2EFC
S11319C0F6ECCF2ED12CF02D0F2EFDEF7F2EF02D27
S11319D00F2EF4EEAF2EFDE1BF2EF02DE80148816D
S11319E0598122E030E061E082E00E94990188811F
S11319F099813ADC3DDEE091E41DF091E51DEE0FA6
S1131A00FF1FEC51F14E2881398180819181281783
S1131A10390709F040C00E94E904AFEFBFEFE9E5E0
S1131A20A150B040E040E1F700C000000E94ED0486
S1131A308091E41D9091E51D01969093E51D80939E
S1131A40E41D9092531E8092521ED6017C92BFEFE9
S1131A50EFE7F4E0B150E040F040E1F700C00000EF
S1131A60D5018C91F6018083FFEF2FE784E0F150DC
S1131A7020408040E1F700C000009FEFE91AF90A16
S1131A800E5F1F4F8091101D9091111DE816F906ED
S1131A900CF4A4CF19C0AFEFBFE7E4E0A150B0400D
S1131AA0E040E1F700C00000E091E41DF091E51D85
S1131AB0EE0FFF1FEC51F14E288139818081918115
S1131AC02817390741F7A7CFDF91CF911F910F91C5
S1131AD0FF90EF90DF90CF90BF90AF909F908F904A
S1131AE07F900895EF92FF921F93CF93DF936BD96A
S1131AF00E94DE000E9446016799FECF0E94E9041D
S1131B002FEF8FE796E1215080409040E1F700C02D
S1131B1000000E94ED040F2EF4E5EF2EFEE1FF2EEF
S1131B20F02D8CE79EE1F70111921192E817F90765
S1131B30D9F71092111D1092101DE4EEFEE180E21F
S1131B409FE111921192E817F907D9F71092151D28
S1131B501092141D80917C1D90917D1D8B3F9105E9
S1131B6081F0EFEFFFE726E1E150F0402040E1F79C
S1131B7000C0000080917C1D90917D1D8B3F9105DC
S1131B8081F78FEF9FEFE9E581509040E040E1F766
S1131B9000C000008091141D9091151D892B79F4CB
S1131BA0FFEF2FE786E1F15020408040E1F700C0CD
S1131BB000008091141D9091151D892B89F39FEFCE
S1131BC0EFEFF9E59150E040F040E1F700C000008C
S1131BD020910C1D30910D1D8091141D9091151DA7
S1131BE082179307A4F02FEF8FE796E121508040EE
S1131BF09040E1F700C0000020910C1D30910D1DB4
S1131C008091141D9091151D8217930764F70E940B
S1131C10DE000E94460129DC8091101D9091111D67
S1131C2018161906B4F411E0C0E0D0E0F7014191B0
S1131C3051917F0122E030E0612F81E00E949901FF
S1131C4021961E5F8091101D9091111DC817D90710
S1131C506CF38CE090E09093291F8093281F85E01B
S1131C60BCD8FFEF2FEF8CE2F15020408040E1F729
S1131C7000C0000089EBC8D89FEFEFEFFCE2915061
S1131C80E040F040E1F700C000006CDE2FEF8FEF82
S1131C9099E5215080409040E1F700C000000E9487
S1131CA0E904EFEFFFEF20EEE150F0402040E1F7D0
S1131CB000C000000E94ED0480E090E0DF91CF912D
S1131CC01F91FF90EF9008955058BB27AA270ED07C
S1131CD04DC13ED130F043D120F031F49F3F11F497
S1131CE01EF433C10EF4E095E7FB29C1E92F4FD16F
S1131CF080F3BA17620773078407950718F071F425
S1131D009EF567C10EF4E0950B2EBA2FA02D0B01A2
S1131D10B90190010C01CA01A0011124FF27591B2C
S1131D2099F0593F50F4503E68F11A16F040A22F32
S1131D30232F342F4427585FF3CF469537952795A3
S1131D40A795F0405395C9F77EF41F16BA0B620BA2
S1131D50730B840BBAF09150A1F0FF0FBB1F661FE9
S1131D60771F881FC2F70EC0BA0F621F731F841F2C
S1131D7048F4879577956795B795F7959E3F08F052
S1131D80B3CF9395880F08F09927EE0F9795879511
S1131D9008950CD0EBC0E3D040F0DAD030F021F459
S1131DA05F3F19F0CCC0511115C1CFC0F0D098F3EA
S1131DB09923C9F35523B1F3951B550BBB27AA27C8
S1131DC062177307840738F09F5F5F4F220F331F3A
S1131DD0441FAA1FA9F333D00E2E3AF0E0E830D006
S1131DE091505040E695001CCAF729D0FE2F27D009
S1131DF0660F771F881FBB1F261737074807AB07D7
S1131E00B0E809F0BB0B802DBF01FF2793585F4F4B
S1131E102AF09E3F510568F092C0DCC05F3FECF3AE
S1131E20983EDCF3869577956795B795F7959F5F10
S1131E30C9F7880F911D9695879597F90895E1E064
S1131E40660F771F881FBB1F621773078407BA07C3
S1131E5020F0621B730B840BBA0BEE1F88F7E0951E
S1131E60089504D06894B111B5C0089598D088F04D
S1131E709F5790F0B92F9927B751A0F0D1F0660F72
S1131E80771F881F991F1AF0BA95C9F712C0B1308D
S1131E9081F09FD0B1E008959CC0672F782F8827E8
S1131EA0B85F39F0B93FCCF3869577956795B395CC
S1131EB0D9F73EF490958095709561957F4F8F4F3B
S1131EC09F4F0895E89409C097FB3EF49095809540
S1131ED0709561957F4F8F4F9F4F9923A9F0F92FEC
S1131EE096E9BB279395F695879577956795B7956A
S1131EF0F111F8CFFAF4BB0F11F460FF1BC06F5F50
S1131F007F4F8F4F9F4F16C0882311F096E911C061
S1131F10772321F09EE8872F762F05C0662371F082
S1131F2096E8862F70E060E02AF09A95660F771F96
S1131F30881FDAF7880F9695879597F9089597F98A
S1131F409F6780E870E060E008959FEF80EC08955B
S1131F5000240A9416161706180609060895002484
S1131F600A9412161306140605060895092E0394FE
S1131F70000C11F4882352F0BB0F40F4BF2B11F472
S1131F8060FF04C06F5F7F4F8F4F9F4F089557FDD1
S1131F909058440F551F59F05F3F71F04795880FD3
S1131FA097FB991F61F09F3F79F08795089512166A
S1131FB013061406551FF2CF4695F1DF08C0161616
S1131FC017061806991FF1CF8695710561050894C7
S1131FD00895E894BB2766277727CB0197F90895DE
S1131FE00BD0C4CFB5DF28F0BADF18F0952309F081
S1131FF0A6CFABCF1124EECFCADFA0F3959FD1F3C8
S1132000950F50E0551F629FF001729FBB27F00DA2
S1132010B11D639FAA27F00DB11DAA1F649F6627F7
S1132020B00DA11D661F829F2227B00DA11D621F46
S1132030739FB00DA11D621F839FA00D611D221F00
S1132040749F3327A00D611D231F849F600D211DE4
S1132050822F762F6A2F11249F5750408AF0E1F087
S113206088234AF0EE0FFF1FBB1F661F771F881FD0
S113207091505040A9F79E3F510570F060CFAACF10
S11320805F3FECF3983EDCF3869577956795B795BB
S1132090F795E7959F5FC1F7FE2B880F911D9695E5
S11320A0879597F90895FA01EE0FFF1F30962105E1
S11320B0310599F16115710561F48038BFE39B071F
S11320C049F168949038810561F08038BFEF9B072F
S11320D041F0992342F5FF3FE1053105210511F156
S11320E0E8940894E795D901AA2329F4AB2FBE2FCD
S11320F0F85FD0F310C0FF5F70F4A695E0F7F739EE
S113210050F019F0FF3A38F49F779F930CD00F905A
S113211007FC905808953EF018CF60E070E080E826
S11321209FE308954FE79F775F934F933F932F93D8
S11321309ED02F913F914F915F9152DF05C019F4CA
S11321400EF0FDCE46CF01CF2ADFC8F39638C0F794
S113215007F80F92E8942BE33AEA48EB5FE74EDF87
S11321600F920F920F924DB75EB70F92C0D0E6EF69
S1132170F0E016D04F915F91EF91FF91E595EE1F3E
S1132180FF1F49F0FE57E0684427EE0F441FFA95FD
S1132190E1F74195550B32D00F9007FE26C0089504
S11321A0DF93CF931F930F93FF92EF92DF927B0104
S11321B08C01689405C0DA2EEF011EDFFE01E8945D
S11321C0A5912591359145915591AEF3EF018EDDA1
S11321D0FE019701A801DA9479F7DF90EF90FF9060
S11321E00F911F91CF91DF9108959B01AC0160E0A5
S11321F070E080E89FE3CDCDA2CEACC0D0DEE8F3A2
S11322009923D9F3940F511DBBF39150504094F08E
S113221059F0882332F0660F771F881F9150504081
S1132220C1F79E3F510544F7880F911D96958795F8
S113223097F908955F3FACF0983E9CF0BB278695D4
S113224077956795B79508F4B1609395C1F7BB0F7F
S113225058F711F460FFE8CF6F5F7F4F8F4F9F4FA8
S1132260E3CFB8CE0EF076C070CE689468CE97DE19
S1132270C8F39923D1F3C6F3DF93CF931F930F933E
S1132280FF92C92FDD2788232AF02197660F771F35
S1132290881FDAF720E030E040E85FEB9FE38839FD
S11322A020F0803E30F021968F770FDDEEE1F1E0F3
S11322B003C00BDDEBE4F1E073DF8B01BE01EC0145
S11322C0FB2E6F5771097595771F880B990BFCDDF1
S11322D028E132E741E35FE38FDEAF2D9801AE01E1
S11322E0FF900F911F91CF91DF9100DD3FCEFA0156
S11322F0DC01AA0FBB1F9B01AC01BF5728F42227A6
S11323003327442750781FC0B75188F4AB2F0024DB
S1132310469537952795011CA395D2F3002069F0C3
S1132320220F331F441FB395DAF30DD0CDCC6130A7
S11323307105A0E88A07B94630F49B01AC01662711
S1132340772788279078309621F020833183428341
S1132350538308959F3F31F0915020F487957795EA
S11323606795B795880F911D9695879597F9089568
S1132370AA1BBB1B51E107C0AA1FBB1FA617B707A7
S113238010F0A61BB70B881F991F5A95A9F78095C3
S11323909095BC01CD010895EE0FFF1F881F8BBFE0
S11323A00790F691E02D1994A29FB001B39FC0014C
S11323B0A39F700D811D1124911DB29F700D811D6D
S10D23C01124911D0895F894FFCF35
S11323CA00000F00000000000000000000000000F0
S11323DA00000000000000000000000000000000EF
S11323EA0000000000000000000000000000A5003A
S11323FA00000000000000000000000000000000CF
S113240A00000000000000000000000000000000BE
S113241A00000000000000000000000000000000AE
S113242AB40000001E0000000000000000000000CC
S113243A000000000000000000000000000000008E
S113244A000000000000000000000000000000007E
S113245A000000000000000000000000000000006E
S113246A000000000000000000000000000000005E
S113247A000000000000000000000000000000004E
S113248A0000C30000002D0000000000000000004E
S113249A000000000000000000000000000000002E
S11324AA000000000000000000000000000000001E
S11324BA5A000000000000000000000000000000B4
S11324CA00000000000000000000000000000000FE
S11324DA0000960000000000000000000000000058
S11324EA00000000D20000003C00000000000000D0
S11324FA00000000000000000000000000000000CE
S113250A00000000000000000000000000000000BD
S113251A00000000000000000000000000000000AD
S113252A000000000000000000000000000000009D
S113253A000000000000000000000000000000008D
S113254A000000000000E10000004B000000000051
S113255A000000000000000000000000000000006D
S113256A000000000000000000000000000000005D
S113257A000000000000000000000000000000004D
S113258A000000000000000000000000000000003D
S113259A000000000000000000000000000000002D
S11325AA0000000000000000F00000005A000000D3
S11325BA000000000000000000000000000000000D
S11325CA00000000000000000000000000000000FD
S11325DA00000000000000000000000000000000ED
S11325EA00000000000000000000000000000000DD
S11325FA00000000000000000000000000000000CD
S113260A00000000000000000000FF000000690054
S113261A00000000000000000000000000000000AC
S113262A000000000000000000000000000000009C
S113263A00000000D2009600000000000000000024
S113264A000000000000000000000000000000007C
S113265A000000000000000000000000000000006C
S113266A0000000000000000000000000E0100004D
S113267A78000000000000000000000000000000D4
S113268A000000000000000000000000000000003C
S113269A000000000000000000000000000000002C
S11326AA000000000000000000000000000000001C
S11326BA000000000000000000000000000000000C
S11326CA00000000000000000000000000001D01DE
S11326DA0000870000000000000000000000000065
S11326EA00000000000000000000000000000000DC
S11326FA00000000000000000000000000000000CC
S113270A00000000000000000000000000000000BB
S113271A00000000000000000000000000000000AB
S113272A000000000000000000000000000000009B
S113273A2C010000960000000000000000000000C8
S113274A000000000000000000000000000000007B
S113275A000000000000000000000000000000006B
S113276A000000000000000000000000000000005B
S113277A000000000000000000000000000000004B
S113278A000000000000000000000000000000003B
S113279A00003B010000A50000000000000000004A
S11327AA000000000000000000000000000000001B
S11327BA000000000000000000000E01D20000002A
S11327CA00000000000000000000000000000000FB
S11327DA00000000000000000000000000000000EB
S11327EA00000000000000000000000000000000DB
S11327FA000000004A010000B400000000000000CC
S113280A00000000000000000000000000000000BA
S113281A00000000000000000000000000000000AA
S113282A000000000000000000000000000000009A
S113283A000000000000000000000000000000008A
S113284A000000000000000000000000000000007A
S113285A00000000000059010000C300000000004D
S113286A000000000000000000000000000000005A
S113287A000000000000000000000000000000004A
S113288A000000000000000000000000000000003A
S113289A000000000000000000000000000000002A
S11328AA000000000000000000000000000000001A
S11328BA000000000000000068010000D2000000CF
S11328CA00000000000000000000000000000000FA
S11328DA00000000000000000000000000000000EA
S11328EA00000000000000000000000000000000DA
S11328FA00000000000000000000000000000000CA
S113290A00000000000000000000000000000000B9
S113291A000000000000000000000F000000E100B9
S113292A0000000000000000000000000000000099
S113293A0000000000000000000000000000000089
S113294A4A010E010000000000000000000000001F
S113295A0000000000000000000000000000000069
S113296A0000000000000000000000000000000059
S113297A0000000000000000000000001E0000002B
S113298AF000000000000000000000000000000049
S113299A0000000000000000000000000000000029
S11329AA0000000000000000000000000000000019
S11329BA0000000000000000000000000000000009
S11329CA00000000000000000000000000000000F9
S11329DA00000000000000000000000000002D00BC
S11329EA0000FF00000000000000000000000000DA
S11329FA00000000000000000000000000000000C9
S1132A0A00000000000000000000000000000000B8
S1132A1A00000000000000000000000000000000A8
S1132A2A0000000000000000000000000000000098
S1132A3A0000000000000000000000000000000088
S1132A4A3C0000000E01000000000000000000002D
S1132A5A0000000000000000000000000000000068
S1132A6A0000000000000000000000000000000058
S1132A7A0000000000000000000000000000000048
S1132A8A0000000000000000000000000000000038
S1132A9A0000000000000000000000000000000028
S1132AAA00004B0000001D010000000000000000AF
S1132ABA0000000000000000000000000000000008
S1132ACA0000000000001E004A010000000000008F
S1132ADA00000000000000000000000000000000E8
S1132AEA00000000000000000000000000000000D8
S1132AFA00000000000000000000000000000000C8
S1132B0A000000005A0000002C0100000000000030
S1132B1A00000000000000000000000000000000A7
S1132B2A0000000000000000000000000000000097
S1132B3A0000000000000000000000000000000087
S1132B4A0000000000000000000000000000000077
S1132B5A0000000000000000000000000000000067
S1132B6A000000000000690000003B0100000000B2
S1132B7A0000000000000000000000000000000047
S1132B8A0000000000000000000000000000000037
S1132B9A0000000000000000000000000000000027
S1132BAA0000000000000000000000000000000017
S1132BBA0000000000000000000000000000000007
S1132BCA0000000000000000780000004A01000034
S1132BDA00000000000000000000000000000000E7
S1132BEA00000000000000000000000000000000D7
S1132BFA00000000000000000000000000000000C7
S1132C0A00000000000000000000000000000000B6
S1132C1A00000000000000000000000000000000A6
S1132C2A00000000000000000000870000005901B5
S1132C3A0000000000000000000000000000000086
S1132C4A0000000000000000000000005A001E00FE
S1132C5A0000000000000000000000000000000066
S1132C6A68010000000000000000000000000000ED
S1132C7A0000000000000000000000000000000046
S1132C8A00000000000000000000000096000000A0
S1132C9A0000000000000000000000000000000026
S1132CAA0000000000000000000000000000000016
S1132CBA0000000000000000000000000000000006
S1132CCA000000000E0100000000000000000000E7
S1132CDA00000000000000000000000000000000E6
S1132CEA00000000000000000000000000000000D6
S1132CFA00005A000000000000000000000000006C
S1132D0A00000000000000000000000000000000B5
S1132D1A0000D200000000000000000000000000D3
S1132D2A0000000000000000000000000000000095
S1132D3A0000000000000000000000000000000085
S1132D4A0000000000000000000000000000000075
S1132D5A0E0100001E0000005A00000000000000DE
S1132D6A0000000000000000000000000000000055
S1132D7A00000000000096000000000000000000AF
S1132D8A0000000000000000000000001E00000017
S1132D9A0000000000000000000000000000000025
S1132DAA0000000000000000000000000000000015
S1132DBA0000D20000000000000000000000000033
S1132DCA00000000000000000000000000000000F5
S1132DDA00000000000000000000000000000000E5
S1132DEA0000000000000000000000004A0100008A
S1132DFA00000000000000000000000000000000C5
S1132E0A00000000000000000000000000000000B4
S1132E1A000000000000000096000000000000000E
S1132E2A0000000000000000000000000000000094
S1132E3A0000000000000000000000000000000084
S1132E4A0000000000000000000000000000000074
S1132E5A0000000000000000000000000000000064
S1132E6A0000000000000000000000000000000054
S1132E7A00000E0100004A0100005A000000000090
S1132E8A0000000000000000000000000000000034
S1132E9A0000000000000000D20000000000000052
S1132EAA0000000000000000000000000000000014
S1132EBA000000005A0000000000000000000000AA
S1132ECA00000000000000000000000000000000F4
S1132EDA00000000000000000E010000960000003F
S1132EEA00000000000000000000000000000000D4
S1132EFA00000000000000000000000000000000C4
S1132F0A00000000000000000000000000000000B3
S1132F1A000000001E000000000000000000000085
S1132F2A0000000000000000000000000000000093
S1132F3A000000000000000000004A010000D20066
S1132F4A0000000000000000000000000000000073
S1132F5A0000000000000000000000000000000063
S1132F6A0000000000000000000000000000000053
S1132F7A0000000000000000000000000000000043
S1132F8A0000000000000000000000000000000033
S1132F9A0000000000000000000000001E00000005
S1132FAA96000000D20000000000000000000000AB
S1132FBA000000000000000000000E0100000000F4
S1132FCA00000000000000000000000000000000F3
S1132FDA000000000000000000000000960000004D
S1132FEA00000000000000000000000000000000D3
S1132FFA00000000000000000000000000004A0178
S113300A00000000000000000000000000000000B2
S113301A00000000000000000000000000000000A2
S113302A0000000000000000000000000000000092
S113303A0000000000000000000000005A00000028
S113304A0000000000000000000000000000000072
S113305A0000000000000000000000000000000062
S113306A000000000E010000000000000000000043
S113307A0000000000000000000000000000000042
S113308A0000000000000000000000000000000032
S113309A0000000000000000000000000000000022
S11330AA0000000000000000000000000000000012
S11330BA00000000000000000000000000001E00E4
S11330CA00005A000000D2000000000000000000C6
S11330DA0000000000000000000000004A01000097
S11330EA00000000000000000000000000000000D2
S11330FA00000000000000000000000000000000C2
S113310A00000000D20000000000000000000000DF
S113311A00000000000000000000000000000000A1
S113312A000000001E0000000E0100000000000064
S113313A0000000000000000000000000000000081
S113314A0000000000000000000000000000000071
S113315A0000000000000000000000000000000061
S113316A00000000960000000000000000000000BB
S113317A0000000000000000000000000000000041
S113318A0000000000005A0000004A01000000008C
S113319A0000000000000000000000000000000021
S11331AA0000000000000000000000000000000011
S11331BA0000000000000000000000000000000001
S11331CA00000000000000000000000000000000F1
S11331DA00000000000000000000000000000000E1
S11331EA0000000000000000960000000E0100002C
S11331FA4A010000000000000000000000001E0058
S113320A00000000000000000000000000000000B0
S113321A00000000000000000000000000000000A0
S113322A0000000000000000000000000E01000081
S113323A0000000000000000000000000000000080
S113324A000000000000000000005A000000000016
S113325A0000000000000000000000000000000060
S113326A0000000000000000000000000000000050
S113327A0000000000000000000000000000000040
S113328A000000000000000000000000D20000005E
S113329A0000000000000000000000000000000020
S11332AA0000000000000000000000000000000010
S11332BA1E000000000000000000000000000000E2
S11332CA00000000000000000000000000000000F0
S11332DA00000000000000000000000000000000E0
S11332EA00000000000000000000000000000000D0
S11332FA00000000000000000000000000000000C0
S113330A0000000000000000000096000000D20047
S113331A00004A015A0000000000000000000000FA
S113332A000000004A010000000000000000000044
S113333A000000000000000000000000000000007F
S113334A000000000000000000000000000000006F
S113335A1E00000000000000000000000000000041
S113336A000000000000000000000000000000004F
S113337A96000000000000000000000000000000A9
S113338A000000000000000000000000000000002F
S113339A000000000000000000000000000000001F
S11333AA000000000000000000000000000000000F
S11333BA00000000000000000000000000000000FF
S11333CA00000000000000000000000000000000EF
S11333DA0E01000000001E000000000000000000B2
S11333EA00000000000000000000000000000000CF
S11333FA00000000000000000000000000000000BF
S113340A00000000000000000000000000000000AE
S113341A00004A0100000000000000000000000053
S113342A000000000000000000000000000000008E
S113343A00000000D20000000000000000000000AC
S113344A000000000000000000000000000000006E
S113345A000000000000000000000000000000005E
S113346A000000000000000000000000000000004E
S113347A00000000000000001E0000000000000020
S113348A000000000000000000000000000000002E
S113349A0000000000000000000096000000000088
S11334AA000000000000000000000000000000000E
S11334BA00000000000000000000000000000000FE
S11334CA00000000000000000000000000000000EE
S11334DA00000000000000000000000000005A0084
S11334EA00000000000000000000000000000000CE
S11334FA00000000000000004A0100000000000073
S113350A00000000000000000000000000000000AD
S113351A000000000000000000000000000000009D
S113352A000000000000000000000000000000008D
S113353A000000000000000000000000000000007D
S113354A00000000960000000000000000000000D7
S113355A00000000000000000000000000000E014E
S113356A000000000000000000000000000000004D
S113357A000000000000000000000000000000003D
S113358A000000000000000000000000000000002D
S113359A000000000000000000000000000000001D
S11335AA00000000000000000000D200000000003B
S11335BA0000000000000000000000005A000000A3
S11335CA68013031303030303030303030303030E3
S11335DA30303030303030303031303030303030DC
S11335EA30303030303030303030303030303030CD
S11335FA30303130313030303030303030303030BB
S113360A30303030303030303030303030303030AC
S113361A303030303030303030303030303030309C
S113362A303030313031303030303030303030308A
S113363A303030303030303030303130303030307B
S113364A303030303030303030303031303030306B
S113365A303030303130313030303030303030305A
S113366A303030303030303030303030303030304C
S113367A303030303030303030303030303030303C
S113368A303030303031303130303030303030302A
S113369A303030303030303030303030303030301C
S11336AA303030303030303030303030303030300C
S11336BA30303030303031303130303030303030FA
S11336CA30303030303030303030303030303030EC
S11336DA30303030303030303030303030303030DC
S11336EA30303030303030313031303030303030CA
S11336FA30303030303030303030303031313030BA
S113370A30303030303030303030303030303030AB
S113371A3030303030303030313031303030303099
S113372A303030303030303030303030303030308B
S113373A303030303030303030303030303030307B
S113374A3030303030303030303130313030303069
S113375A303030303030303030303030303030305B
S113376A303030303030303030303030303030304B
S113377A3030303030303030303031303130303039
S113378A303030303030303030303030303030302B
S113379A303030303030303030303030303030301B
S11337AA3030303030303030303030313031303009
S11337BA30303030303030303030303030303031FA
S11337CA31303030303030303030303030303030EA
S11337DA30303030303030303030303031303130D9
S11337EA30303030303030303030303030303030CB
S11337FA30303030303030303030303030303030BB
S113380A30303030303030303030303030313031A8
S113381A303030303030303030303030303030309A
S113382A303030303030303030303030303030308A
S113383A3030303030303030303030303030313079
S113384A3130303030303030303030303030303069
S113385A303030303030303030303030303030305A
S113386A3030303030303030303030303030303149
S113387A3031303030303030303030303030303039
S113388A3030313130303030303030303030303028
S113389A303030303030303030303030303030301A
S11338AA3130313030303030303030303030303008
S11338BA30303030303030303030303030303030FA
S11338CA30303030303030303030303030303030EA
S11338DA30313031303030303030303030303030D8
S11338EA30303030303030303030303030303030CA
S11338FA30303030303030303030303030303030BA
S113390A30303130313030303030303030303030A7
S113391A3030303030303030303030303030303099
S113392A3030303030303030303030303030303089
S113393A3030303130313030303030303030303077
S113394A3030303030313130303030303030303067
S113395A3030303030303030303030303030303059
S113396A3030303031303130303030303030303047
S113397A3030303030303030303030303030303039
S113398A3030303030303030303030303030303029
S113399A3030303030313031303030303030303017
S11339AA3030303030303030303030303030303009
S11339BA30303030303030303030303030303030F9
S11339CA30303030303031303130303030303030E7
S11339DA30303030303030303030303030303030D9
S11339EA30303030303030303030303030303030C9
S11339FA30303030303030313031303030303030B7
S1133A0A30303030303030303131303030303030A6
S1133A1A3030313030303030303030303030303097
S1133A2A3030303030303030313030303030303087
S1133A3A3030303030303030303030303030303078
S1133A4A3030303031303030303030303030303067
S1133A5A3030303030303030303030313030303057
S1133A6A3030303030303030303030313030303047
S1133A7A3030303030303030303030303030303038
S1133A8A3030303030303030303031303130313025
S1133A9A3030303030303030303030303031303017
S1133AAA3030303030303030313030303030303007
S1133ABA30303030303030303030303130303030F7
S1133ACA30303030303030303030303030303030E8
S1133ADA30303030303030303130303030303030D7
S1133AEA30303030303030303030303030303130C7
S1133AFA30303030303030303030303030303030B8
S1133B0A30303030303030303030303030303030A7
S1133B1A3030303030303030303030313031303194
S1133B2A3030303030303030303030303030313086
S1133B3A3030303030303030303030303130303076
S1133B4A3030303030303030303030303030313066
S1133B5A3130303030303030303030303030303056
S1133B6A3030303030303030303030303130303046
S1133B7A3030303030303030303030303030303136
S1133B8A3031303030303030303030303030303026
S1133B9A3030303030303030303030303030303017
S1133BAA3030303030303030303030303030303007
S1133BBA31303130313030303030303030303031F3
S1133BCA30303030303030303030303030303030E7
S1133BDA31303030303030303030303030303030D6
S1133BEA30313030303030303030303030303030C6
S1133BFA30303030303030303030303030303030B7
S1133C0A31303030303030303030303030303030A5
S1133C1A3030303031303030303030303030303095
S1133C2A3030303030303030303030303030303086
S1133C3A3030303030303030303030303030303076
S1133C4A3031303130313030303030303030303063
S1133C5A3130303030303030303030303030303055
S1133C6A3030303031303030303030303030303045
S1133C7A3030303031303130303030303030303034
S1133C8A3030303030303030303030303030303026
S1133C9A3030303031303030303030303030303015
S1133CAA3030303030313031303030303030303004
S1133CBA30303030303030303030303030303030F6
S1133CCA30303030303030303030303030303030E6
S1133CDA30303030303031303130313030303030D3
S1133CEA30313030303030303030303030303030C5
S1133CFA30303030303030303130303030303030B5
S1133D0A30303030303030313030303030303030A4
S1133D1A3030303030303030303030303030303095
S1133D2A3030303030303030313030303030303084
S1133D3A3030303030303030303031303030303074
S1133D4A3030303030303030303030303030303065
S1133D5A3030303030303030303030303030303055
S1133D6A3030303030303031303130313130303041
S1133D7A3030303031303030303030303030303034
S1133D8A3030303030303030303031303030303024
S1133D9A3030303030303030303031303030303014
S1133DAA3030303030303030303030303030303005
S1133DBA30303030303030303030303030303030F5
S1133DCA30303030303030303030313030313030E3
S1133DDA30303030303030303030303030303030D5
S1133DEA30303030303030303030303130303030C4
S1133DFA30303030303030303030303031303030B4
S1133E0A30303030303030303030303030303030A4
S1133E1A3030303030303030303030303030313093
S1133E2A3030303030303030303030303030303183
S1133E3A3030303030303030303030303030303074
S1133E4A3030303030303030303030303030303064
S1133E5A3031303030303030303030303030313052
S1133E6A3030303030303030303030303030303044
S1133E7A3030303030303030303030303030303034
S1133E8A3030303031303030303030303030303023
S1133E9A3031303030303030303030303030303013
S1133EAA3030303030303030303030303030303004
S1133EBA30303030303030313030303030303030F3
S1073ECA313030005F
S9030000FC
